{
  "_format": "hh-sol-artifact-1",
  "contractName": "Contractor",
  "sourceName": "contracts/Contractor.sol",
  "abi": [
    {
      "anonymous": false,
      "inputs": [
        {
          "indexed": false,
          "internalType": "address",
          "name": "addressContractor",
          "type": "address"
        },
        {
          "indexed": false,
          "internalType": "string",
          "name": "name",
          "type": "string"
        },
        {
          "indexed": false,
          "internalType": "string",
          "name": "resume",
          "type": "string"
        }
      ],
      "name": "ContractorAdded",
      "type": "event"
    },
    {
      "inputs": [
        {
          "internalType": "string",
          "name": "_name",
          "type": "string"
        },
        {
          "internalType": "string",
          "name": "_resume",
          "type": "string"
        }
      ],
      "name": "addContractor",
      "outputs": [],
      "stateMutability": "nonpayable",
      "type": "function"
    },
    {
      "inputs": [],
      "name": "getContractorLength",
      "outputs": [
        {
          "internalType": "uint256",
          "name": "",
          "type": "uint256"
        }
      ],
      "stateMutability": "view",
      "type": "function"
    },
    {
      "inputs": [
        {
          "internalType": "uint256",
          "name": "index",
          "type": "uint256"
        }
      ],
      "name": "getContractors",
      "outputs": [
        {
          "internalType": "address",
          "name": "contractorAddress",
          "type": "address"
        },
        {
          "internalType": "string",
          "name": "name",
          "type": "string"
        },
        {
          "internalType": "string",
          "name": "resume",
          "type": "string"
        }
      ],
      "stateMutability": "view",
      "type": "function"
    },
    {
      "inputs": [
        {
          "internalType": "address",
          "name": "",
          "type": "address"
        }
      ],
      "name": "hasAddedContractor",
      "outputs": [
        {
          "internalType": "bool",
          "name": "",
          "type": "bool"
        }
      ],
      "stateMutability": "view",
      "type": "function"
    },
    {
      "inputs": [
        {
          "internalType": "uint256",
          "name": "",
          "type": "uint256"
        }
      ],
      "name": "infos",
      "outputs": [
        {
          "internalType": "address",
          "name": "addressContractor",
          "type": "address"
        },
        {
          "internalType": "string",
          "name": "name",
          "type": "string"
        },
        {
          "internalType": "string",
          "name": "resume",
          "type": "string"
        }
      ],
      "stateMutability": "view",
      "type": "function"
    }
  ],
  "bytecode": "0x608060405234801561001057600080fd5b50610dd3806100206000396000f3fe608060405234801561001057600080fd5b50600436106100575760003560e01c80630ab5daae1461005c57806328de3c9b1461007857806344f1c022146100aa578063e827bf85146100c8578063eda65219146100f8575b600080fd5b6100766004803603810190610071919061078b565b61012a565b005b610092600480360381019061008d9190610839565b61031e565b6040516100a193929190610926565b60405180910390f35b6100b2610488565b6040516100bf919061097a565b60405180910390f35b6100e260048036038101906100dd91906109c1565b610494565b6040516100ef9190610a09565b60405180910390f35b610112600480360381019061010d9190610839565b6104b4565b60405161012193929190610926565b60405180910390f35b600160003373ffffffffffffffffffffffffffffffffffffffff1673ffffffffffffffffffffffffffffffffffffffff16815260200190815260200160002060009054906101000a900460ff16156101b7576040517f08c379a00000000000000000000000000000000000000000000000000000000081526004016101ae90610a70565b60405180910390fd5b600060405180606001604052803373ffffffffffffffffffffffffffffffffffffffff16815260200184815260200183815250908060018154018082558091505060019003906000526020600020906003020160009091909190915060008201518160000160006101000a81548173ffffffffffffffffffffffffffffffffffffffff021916908373ffffffffffffffffffffffffffffffffffffffff160217905550602082015181600101908161026f9190610c9c565b5060408201518160020190816102859190610c9c565b50505060018060003373ffffffffffffffffffffffffffffffffffffffff1673ffffffffffffffffffffffffffffffffffffffff16815260200190815260200160002060006101000a81548160ff0219169083151502179055507f7fec189791e3641f6854b1aee857f19c05a1614df8a729680799dc66ce76dd7833838360405161031293929190610926565b60405180910390a15050565b6000818154811061032e57600080fd5b90600052602060002090600302016000915090508060000160009054906101000a900473ffffffffffffffffffffffffffffffffffffffff169080600101805461037790610abf565b80601f01602080910402602001604051908101604052809291908181526020018280546103a390610abf565b80156103f05780601f106103c5576101008083540402835291602001916103f0565b820191906000526020600020905b8154815290600101906020018083116103d357829003601f168201915b50505050509080600201805461040590610abf565b80601f016020809104026020016040519081016040528092919081815260200182805461043190610abf565b801561047e5780601f106104535761010080835404028352916020019161047e565b820191906000526020600020905b81548152906001019060200180831161046157829003601f168201915b5050505050905083565b60008080549050905090565b60016020528060005260406000206000915054906101000a900460ff1681565b600060608060008085815481106104ce576104cd610d6e565b5b906000526020600020906003020190508060000160009054906101000a900473ffffffffffffffffffffffffffffffffffffffff16816001018260020181805461051790610abf565b80601f016020809104026020016040519081016040528092919081815260200182805461054390610abf565b80156105905780601f1061056557610100808354040283529160200191610590565b820191906000526020600020905b81548152906001019060200180831161057357829003601f168201915b505050505091508080546105a390610abf565b80601f01602080910402602001604051908101604052809291908181526020018280546105cf90610abf565b801561061c5780601f106105f15761010080835404028352916020019161061c565b820191906000526020600020905b8154815290600101906020018083116105ff57829003601f168201915b50505050509050935093509350509193909250565b6000604051905090565b600080fd5b600080fd5b600080fd5b600080fd5b6000601f19601f8301169050919050565b7f4e487b7100000000000000000000000000000000000000000000000000000000600052604160045260246000fd5b6106988261064f565b810181811067ffffffffffffffff821117156106b7576106b6610660565b5b80604052505050565b60006106ca610631565b90506106d6828261068f565b919050565b600067ffffffffffffffff8211156106f6576106f5610660565b5b6106ff8261064f565b9050602081019050919050565b82818337600083830152505050565b600061072e610729846106db565b6106c0565b90508281526020810184848401111561074a5761074961064a565b5b61075584828561070c565b509392505050565b600082601f83011261077257610771610645565b5b813561078284826020860161071b565b91505092915050565b600080604083850312156107a2576107a161063b565b5b600083013567ffffffffffffffff8111156107c0576107bf610640565b5b6107cc8582860161075d565b925050602083013567ffffffffffffffff8111156107ed576107ec610640565b5b6107f98582860161075d565b9150509250929050565b6000819050919050565b61081681610803565b811461082157600080fd5b50565b6000813590506108338161080d565b92915050565b60006020828403121561084f5761084e61063b565b5b600061085d84828501610824565b91505092915050565b600073ffffffffffffffffffffffffffffffffffffffff82169050919050565b600061089182610866565b9050919050565b6108a181610886565b82525050565b600081519050919050565b600082825260208201905092915050565b60005b838110156108e15780820151818401526020810190506108c6565b60008484015250505050565b60006108f8826108a7565b61090281856108b2565b93506109128185602086016108c3565b61091b8161064f565b840191505092915050565b600060608201905061093b6000830186610898565b818103602083015261094d81856108ed565b9050818103604083015261096181846108ed565b9050949350505050565b61097481610803565b82525050565b600060208201905061098f600083018461096b565b92915050565b61099e81610886565b81146109a957600080fd5b50565b6000813590506109bb81610995565b92915050565b6000602082840312156109d7576109d661063b565b5b60006109e5848285016109ac565b91505092915050565b60008115159050919050565b610a03816109ee565b82525050565b6000602082019050610a1e60008301846109fa565b92915050565b7f596f752063616e206f6e6c7920616464206f6e6520636f6e74726163746f722e600082015250565b6000610a5a6020836108b2565b9150610a6582610a24565b602082019050919050565b60006020820190508181036000830152610a8981610a4d565b9050919050565b7f4e487b7100000000000000000000000000000000000000000000000000000000600052602260045260246000fd5b60006002820490506001821680610ad757607f821691505b602082108103610aea57610ae9610a90565b5b50919050565b60008190508160005260206000209050919050565b60006020601f8301049050919050565b600082821b905092915050565b600060088302610b527fffffffffffffffffffffffffffffffffffffffffffffffffffffffffffffffff82610b15565b610b5c8683610b15565b95508019841693508086168417925050509392505050565b6000819050919050565b6000610b99610b94610b8f84610803565b610b74565b610803565b9050919050565b6000819050919050565b610bb383610b7e565b610bc7610bbf82610ba0565b848454610b22565b825550505050565b600090565b610bdc610bcf565b610be7818484610baa565b505050565b5b81811015610c0b57610c00600082610bd4565b600181019050610bed565b5050565b601f821115610c5057610c2181610af0565b610c2a84610b05565b81016020851015610c39578190505b610c4d610c4585610b05565b830182610bec565b50505b505050565b600082821c905092915050565b6000610c7360001984600802610c55565b1980831691505092915050565b6000610c8c8383610c62565b9150826002028217905092915050565b610ca5826108a7565b67ffffffffffffffff811115610cbe57610cbd610660565b5b610cc88254610abf565b610cd3828285610c0f565b600060209050601f831160018114610d065760008415610cf4578287015190505b610cfe8582610c80565b865550610d66565b601f198416610d1486610af0565b60005b82811015610d3c57848901518255600182019150602085019450602081019050610d17565b86831015610d595784890151610d55601f891682610c62565b8355505b6001600288020188555050505b505050505050565b7f4e487b7100000000000000000000000000000000000000000000000000000000600052603260045260246000fdfea2646970667358221220f38281d734f1866f216da07395156373ae075a31a084c111a4bd6ac0e3f2128064736f6c63430008180033",
  "linkReferences": {},
  "deployedLinkReferences": {}
}