{
  "_format": "hh-sol-artifact-1",
  "contractName": "DealNFT",
  "sourceName": "contracts/DealNFT.sol",
  "abi": [
    {
      "inputs": [],
      "stateMutability": "nonpayable",
      "type": "constructor"
    },
    {
      "inputs": [
        {
          "internalType": "address",
          "name": "sender",
          "type": "address"
        },
        {
          "internalType": "uint256",
          "name": "tokenId",
          "type": "uint256"
        },
        {
          "internalType": "address",
          "name": "owner",
          "type": "address"
        }
      ],
      "name": "ERC721IncorrectOwner",
      "type": "error"
    },
    {
      "inputs": [
        {
          "internalType": "address",
          "name": "operator",
          "type": "address"
        },
        {
          "internalType": "uint256",
          "name": "tokenId",
          "type": "uint256"
        }
      ],
      "name": "ERC721InsufficientApproval",
      "type": "error"
    },
    {
      "inputs": [
        {
          "internalType": "address",
          "name": "approver",
          "type": "address"
        }
      ],
      "name": "ERC721InvalidApprover",
      "type": "error"
    },
    {
      "inputs": [
        {
          "internalType": "address",
          "name": "operator",
          "type": "address"
        }
      ],
      "name": "ERC721InvalidOperator",
      "type": "error"
    },
    {
      "inputs": [
        {
          "internalType": "address",
          "name": "owner",
          "type": "address"
        }
      ],
      "name": "ERC721InvalidOwner",
      "type": "error"
    },
    {
      "inputs": [
        {
          "internalType": "address",
          "name": "receiver",
          "type": "address"
        }
      ],
      "name": "ERC721InvalidReceiver",
      "type": "error"
    },
    {
      "inputs": [
        {
          "internalType": "address",
          "name": "sender",
          "type": "address"
        }
      ],
      "name": "ERC721InvalidSender",
      "type": "error"
    },
    {
      "inputs": [
        {
          "internalType": "uint256",
          "name": "tokenId",
          "type": "uint256"
        }
      ],
      "name": "ERC721NonexistentToken",
      "type": "error"
    },
    {
      "anonymous": false,
      "inputs": [
        {
          "indexed": true,
          "internalType": "address",
          "name": "owner",
          "type": "address"
        },
        {
          "indexed": true,
          "internalType": "address",
          "name": "approved",
          "type": "address"
        },
        {
          "indexed": true,
          "internalType": "uint256",
          "name": "tokenId",
          "type": "uint256"
        }
      ],
      "name": "Approval",
      "type": "event"
    },
    {
      "anonymous": false,
      "inputs": [
        {
          "indexed": true,
          "internalType": "address",
          "name": "owner",
          "type": "address"
        },
        {
          "indexed": true,
          "internalType": "address",
          "name": "operator",
          "type": "address"
        },
        {
          "indexed": false,
          "internalType": "bool",
          "name": "approved",
          "type": "bool"
        }
      ],
      "name": "ApprovalForAll",
      "type": "event"
    },
    {
      "anonymous": false,
      "inputs": [
        {
          "indexed": false,
          "internalType": "uint256",
          "name": "_fromTokenId",
          "type": "uint256"
        },
        {
          "indexed": false,
          "internalType": "uint256",
          "name": "_toTokenId",
          "type": "uint256"
        }
      ],
      "name": "BatchMetadataUpdate",
      "type": "event"
    },
    {
      "anonymous": false,
      "inputs": [
        {
          "indexed": false,
          "internalType": "uint256",
          "name": "_tokenId",
          "type": "uint256"
        }
      ],
      "name": "MetadataUpdate",
      "type": "event"
    },
    {
      "anonymous": false,
      "inputs": [
        {
          "indexed": true,
          "internalType": "address",
          "name": "previousOwner",
          "type": "address"
        },
        {
          "indexed": true,
          "internalType": "address",
          "name": "potentialNewOwner",
          "type": "address"
        }
      ],
      "name": "OwnershipTransferInitiated",
      "type": "event"
    },
    {
      "anonymous": false,
      "inputs": [
        {
          "indexed": true,
          "internalType": "address",
          "name": "previousOwner",
          "type": "address"
        },
        {
          "indexed": true,
          "internalType": "address",
          "name": "newOwner",
          "type": "address"
        }
      ],
      "name": "OwnershipTransferred",
      "type": "event"
    },
    {
      "anonymous": false,
      "inputs": [
        {
          "indexed": true,
          "internalType": "address",
          "name": "from",
          "type": "address"
        },
        {
          "indexed": true,
          "internalType": "address",
          "name": "to",
          "type": "address"
        },
        {
          "indexed": true,
          "internalType": "uint256",
          "name": "tokenId",
          "type": "uint256"
        }
      ],
      "name": "Transfer",
      "type": "event"
    },
    {
      "inputs": [
        {
          "internalType": "address",
          "name": "to",
          "type": "address"
        },
        {
          "internalType": "uint256",
          "name": "tokenId",
          "type": "uint256"
        }
      ],
      "name": "approve",
      "outputs": [],
      "stateMutability": "nonpayable",
      "type": "function"
    },
    {
      "inputs": [
        {
          "internalType": "address",
          "name": "owner",
          "type": "address"
        }
      ],
      "name": "balanceOf",
      "outputs": [
        {
          "internalType": "uint256",
          "name": "",
          "type": "uint256"
        }
      ],
      "stateMutability": "view",
      "type": "function"
    },
    {
      "inputs": [],
      "name": "confirmOwnershipTransfer",
      "outputs": [],
      "stateMutability": "nonpayable",
      "type": "function"
    },
    {
      "inputs": [
        {
          "internalType": "uint256",
          "name": "tokenId",
          "type": "uint256"
        }
      ],
      "name": "getApproved",
      "outputs": [
        {
          "internalType": "address",
          "name": "",
          "type": "address"
        }
      ],
      "stateMutability": "view",
      "type": "function"
    },
    {
      "inputs": [
        {
          "internalType": "address",
          "name": "newOwner",
          "type": "address"
        }
      ],
      "name": "initiateOwnershipTransfer",
      "outputs": [],
      "stateMutability": "nonpayable",
      "type": "function"
    },
    {
      "inputs": [
        {
          "internalType": "address",
          "name": "owner",
          "type": "address"
        },
        {
          "internalType": "address",
          "name": "operator",
          "type": "address"
        }
      ],
      "name": "isApprovedForAll",
      "outputs": [
        {
          "internalType": "bool",
          "name": "",
          "type": "bool"
        }
      ],
      "stateMutability": "view",
      "type": "function"
    },
    {
      "inputs": [
        {
          "internalType": "address",
          "name": "to",
          "type": "address"
        },
        {
          "internalType": "string",
          "name": "tokenURI",
          "type": "string"
        }
      ],
      "name": "mintNFT",
      "outputs": [
        {
          "internalType": "uint256",
          "name": "",
          "type": "uint256"
        }
      ],
      "stateMutability": "nonpayable",
      "type": "function"
    },
    {
      "inputs": [],
      "name": "name",
      "outputs": [
        {
          "internalType": "string",
          "name": "",
          "type": "string"
        }
      ],
      "stateMutability": "view",
      "type": "function"
    },
    {
      "inputs": [],
      "name": "owner",
      "outputs": [
        {
          "internalType": "address",
          "name": "",
          "type": "address"
        }
      ],
      "stateMutability": "view",
      "type": "function"
    },
    {
      "inputs": [
        {
          "internalType": "uint256",
          "name": "tokenId",
          "type": "uint256"
        }
      ],
      "name": "ownerOf",
      "outputs": [
        {
          "internalType": "address",
          "name": "",
          "type": "address"
        }
      ],
      "stateMutability": "view",
      "type": "function"
    },
    {
      "inputs": [],
      "name": "potentialNewOwner",
      "outputs": [
        {
          "internalType": "address",
          "name": "",
          "type": "address"
        }
      ],
      "stateMutability": "view",
      "type": "function"
    },
    {
      "inputs": [
        {
          "internalType": "address",
          "name": "from",
          "type": "address"
        },
        {
          "internalType": "address",
          "name": "to",
          "type": "address"
        },
        {
          "internalType": "uint256",
          "name": "tokenId",
          "type": "uint256"
        }
      ],
      "name": "safeTransferFrom",
      "outputs": [],
      "stateMutability": "nonpayable",
      "type": "function"
    },
    {
      "inputs": [
        {
          "internalType": "address",
          "name": "from",
          "type": "address"
        },
        {
          "internalType": "address",
          "name": "to",
          "type": "address"
        },
        {
          "internalType": "uint256",
          "name": "tokenId",
          "type": "uint256"
        },
        {
          "internalType": "bytes",
          "name": "data",
          "type": "bytes"
        }
      ],
      "name": "safeTransferFrom",
      "outputs": [],
      "stateMutability": "nonpayable",
      "type": "function"
    },
    {
      "inputs": [
        {
          "internalType": "address",
          "name": "operator",
          "type": "address"
        },
        {
          "internalType": "bool",
          "name": "approved",
          "type": "bool"
        }
      ],
      "name": "setApprovalForAll",
      "outputs": [],
      "stateMutability": "nonpayable",
      "type": "function"
    },
    {
      "inputs": [
        {
          "internalType": "bytes4",
          "name": "interfaceId",
          "type": "bytes4"
        }
      ],
      "name": "supportsInterface",
      "outputs": [
        {
          "internalType": "bool",
          "name": "",
          "type": "bool"
        }
      ],
      "stateMutability": "view",
      "type": "function"
    },
    {
      "inputs": [],
      "name": "symbol",
      "outputs": [
        {
          "internalType": "string",
          "name": "",
          "type": "string"
        }
      ],
      "stateMutability": "view",
      "type": "function"
    },
    {
      "inputs": [],
      "name": "tokenCounter",
      "outputs": [
        {
          "internalType": "uint256",
          "name": "",
          "type": "uint256"
        }
      ],
      "stateMutability": "view",
      "type": "function"
    },
    {
      "inputs": [
        {
          "internalType": "uint256",
          "name": "tokenId",
          "type": "uint256"
        }
      ],
      "name": "tokenURI",
      "outputs": [
        {
          "internalType": "string",
          "name": "",
          "type": "string"
        }
      ],
      "stateMutability": "view",
      "type": "function"
    },
    {
      "inputs": [
        {
          "internalType": "address",
          "name": "from",
          "type": "address"
        },
        {
          "internalType": "address",
          "name": "to",
          "type": "address"
        },
        {
          "internalType": "uint256",
          "name": "tokenId",
          "type": "uint256"
        }
      ],
      "name": "transferFrom",
      "outputs": [],
      "stateMutability": "nonpayable",
      "type": "function"
    }
  ],
  "bytecode": "0x60806040523480156200001157600080fd5b506040518060400160405280600781526020017f4465616c4e4654000000000000000000000000000000000000000000000000008152506040518060400160405280600481526020017f444e46540000000000000000000000000000000000000000000000000000000081525081600090816200008f9190620003ea565b508060019081620000a19190620003ea565b50505033600760006101000a81548173ffffffffffffffffffffffffffffffffffffffff021916908373ffffffffffffffffffffffffffffffffffffffff160217905550600760009054906101000a900473ffffffffffffffffffffffffffffffffffffffff1673ffffffffffffffffffffffffffffffffffffffff16600073ffffffffffffffffffffffffffffffffffffffff167f8be0079c531659141344cd1fd0a4f28419497f9722a3daafe3b4186f6b6457e060405160405180910390a36000600981905550620004d1565b600081519050919050565b7f4e487b7100000000000000000000000000000000000000000000000000000000600052604160045260246000fd5b7f4e487b7100000000000000000000000000000000000000000000000000000000600052602260045260246000fd5b60006002820490506001821680620001f257607f821691505b602082108103620002085762000207620001aa565b5b50919050565b60008190508160005260206000209050919050565b60006020601f8301049050919050565b600082821b905092915050565b600060088302620002727fffffffffffffffffffffffffffffffffffffffffffffffffffffffffffffffff8262000233565b6200027e868362000233565b95508019841693508086168417925050509392505050565b6000819050919050565b6000819050919050565b6000620002cb620002c5620002bf8462000296565b620002a0565b62000296565b9050919050565b6000819050919050565b620002e783620002aa565b620002ff620002f682620002d2565b84845462000240565b825550505050565b600090565b6200031662000307565b62000323818484620002dc565b505050565b5b818110156200034b576200033f6000826200030c565b60018101905062000329565b5050565b601f8211156200039a5762000364816200020e565b6200036f8462000223565b810160208510156200037f578190505b620003976200038e8562000223565b83018262000328565b50505b505050565b600082821c905092915050565b6000620003bf600019846008026200039f565b1980831691505092915050565b6000620003da8383620003ac565b9150826002028217905092915050565b620003f58262000170565b67ffffffffffffffff8111156200041157620004106200017b565b5b6200041d8254620001d9565b6200042a8282856200034f565b600060209050601f8311600181146200046257600084156200044d578287015190505b620004598582620003cc565b865550620004c9565b601f19841662000472866200020e565b60005b828110156200049c5784890151825560018201915060208501945060208101905062000475565b86831015620004bc5784890151620004b8601f891682620003ac565b8355505b6001600288020188555050505b505050505050565b612a7a80620004e16000396000f3fe608060405234801561001057600080fd5b50600436106101215760003560e01c80637200b829116100ad578063c0b6f56111610071578063c0b6f561146102f4578063c87b56dd14610310578063d082e38114610340578063e985e9c51461035e578063eacabe141461038e57610121565b80637200b829146102765780638da5cb5b1461028057806395d89b411461029e578063a22cb465146102bc578063b88d4fde146102d857610121565b806323b872dd116100f457806323b872dd146101c05780632f681811146101dc57806342842e0e146101fa5780636352211e1461021657806370a082311461024657610121565b806301ffc9a71461012657806306fdde0314610156578063081812fc14610174578063095ea7b3146101a4575b600080fd5b610140600480360381019061013b9190611d42565b6103be565b60405161014d9190611d8a565b60405180910390f35b61015e61041f565b60405161016b9190611e35565b60405180910390f35b61018e60048036038101906101899190611e8d565b6104b1565b60405161019b9190611efb565b60405180910390f35b6101be60048036038101906101b99190611f42565b6104cd565b005b6101da60048036038101906101d59190611f82565b6104e3565b005b6101e46105e5565b6040516101f19190611efb565b60405180910390f35b610214600480360381019061020f9190611f82565b61060f565b005b610230600480360381019061022b9190611e8d565b61062f565b60405161023d9190611efb565b60405180910390f35b610260600480360381019061025b9190611fd5565b610641565b60405161026d9190612011565b60405180910390f35b61027e6106fb565b005b6102886107b8565b6040516102959190611efb565b60405180910390f35b6102a66107e2565b6040516102b39190611e35565b60405180910390f35b6102d660048036038101906102d19190612058565b610874565b005b6102f260048036038101906102ed91906121cd565b61088a565b005b61030e60048036038101906103099190611fd5565b6108a7565b005b61032a60048036038101906103259190611e8d565b610a4b565b6040516103379190611e35565b60405180910390f35b610348610b5e565b6040516103559190612011565b60405180910390f35b61037860048036038101906103739190612250565b610b64565b6040516103859190611d8a565b60405180910390f35b6103a860048036038101906103a39190612331565b610bf8565b6040516103b59190612011565b60405180910390f35b6000634906490660e01b7bffffffffffffffffffffffffffffffffffffffffffffffffffffffff1916827bffffffffffffffffffffffffffffffffffffffffffffffffffffffff19161480610418575061041782610cac565b5b9050919050565b60606000805461042e906123bc565b80601f016020809104026020016040519081016040528092919081815260200182805461045a906123bc565b80156104a75780601f1061047c576101008083540402835291602001916104a7565b820191906000526020600020905b81548152906001019060200180831161048a57829003601f168201915b5050505050905090565b60006104bc82610d8e565b506104c682610e16565b9050919050565b6104df82826104da610e53565b610e5b565b5050565b600073ffffffffffffffffffffffffffffffffffffffff168273ffffffffffffffffffffffffffffffffffffffff16036105555760006040517f64a0ae9200000000000000000000000000000000000000000000000000000000815260040161054c9190611efb565b60405180910390fd5b60006105698383610564610e53565b610e6d565b90508373ffffffffffffffffffffffffffffffffffffffff168173ffffffffffffffffffffffffffffffffffffffff16146105df578382826040517f64283d7b0000000000000000000000000000000000000000000000000000000081526004016105d6939291906123ed565b60405180910390fd5b50505050565b6000600860009054906101000a900473ffffffffffffffffffffffffffffffffffffffff16905090565b61062a8383836040518060200160405280600081525061088a565b505050565b600061063a82610d8e565b9050919050565b60008073ffffffffffffffffffffffffffffffffffffffff168273ffffffffffffffffffffffffffffffffffffffff16036106b45760006040517f89c62b640000000000000000000000000000000000000000000000000000000081526004016106ab9190611efb565b60405180910390fd5b600360008373ffffffffffffffffffffffffffffffffffffffff1673ffffffffffffffffffffffffffffffffffffffff168152602001908152602001600020549050919050565b600860009054906101000a900473ffffffffffffffffffffffffffffffffffffffff1673ffffffffffffffffffffffffffffffffffffffff163373ffffffffffffffffffffffffffffffffffffffff161461078b576040517f08c379a000000000000000000000000000000000000000000000000000000000815260040161078290612496565b60405180910390fd5b6107b6600860009054906101000a900473ffffffffffffffffffffffffffffffffffffffff16611087565b565b6000600760009054906101000a900473ffffffffffffffffffffffffffffffffffffffff16905090565b6060600180546107f1906123bc565b80601f016020809104026020016040519081016040528092919081815260200182805461081d906123bc565b801561086a5780601f1061083f5761010080835404028352916020019161086a565b820191906000526020600020905b81548152906001019060200180831161084d57829003601f168201915b5050505050905090565b61088661087f610e53565b838361118f565b5050565b6108958484846104e3565b6108a1848484846112fe565b50505050565b3373ffffffffffffffffffffffffffffffffffffffff166108c66107b8565b73ffffffffffffffffffffffffffffffffffffffff161461091c576040517f08c379a000000000000000000000000000000000000000000000000000000000815260040161091390612502565b60405180910390fd5b600073ffffffffffffffffffffffffffffffffffffffff168173ffffffffffffffffffffffffffffffffffffffff160361098b576040517f08c379a000000000000000000000000000000000000000000000000000000000815260040161098290612594565b60405180910390fd5b80600860006101000a81548173ffffffffffffffffffffffffffffffffffffffff021916908373ffffffffffffffffffffffffffffffffffffffff1602179055508073ffffffffffffffffffffffffffffffffffffffff16600760009054906101000a900473ffffffffffffffffffffffffffffffffffffffff1673ffffffffffffffffffffffffffffffffffffffff167fb150023a879fd806e3599b6ca8ee3b60f0e360ab3846d128d67ebce1a391639a60405160405180910390a350565b6060610a5682610d8e565b506000600660008481526020019081526020016000208054610a77906123bc565b80601f0160208091040260200160405190810160405280929190818152602001828054610aa3906123bc565b8015610af05780601f10610ac557610100808354040283529160200191610af0565b820191906000526020600020905b815481529060010190602001808311610ad357829003601f168201915b505050505090506000610b016114b5565b90506000815103610b16578192505050610b59565b600082511115610b4b578082604051602001610b339291906125f0565b60405160208183030381529060405292505050610b59565b610b54846114cc565b925050505b919050565b60095481565b6000600560008473ffffffffffffffffffffffffffffffffffffffff1673ffffffffffffffffffffffffffffffffffffffff16815260200190815260200160002060008373ffffffffffffffffffffffffffffffffffffffff1673ffffffffffffffffffffffffffffffffffffffff16815260200190815260200160002060009054906101000a900460ff16905092915050565b60003373ffffffffffffffffffffffffffffffffffffffff16610c196107b8565b73ffffffffffffffffffffffffffffffffffffffff1614610c6f576040517f08c379a0000000000000000000000000000000000000000000000000000000008152600401610c6690612502565b60405180910390fd5b60006009549050610c808482611535565b610c8a8184611553565b60096000815480929190610c9d90612643565b91905055508091505092915050565b60007f80ac58cd000000000000000000000000000000000000000000000000000000007bffffffffffffffffffffffffffffffffffffffffffffffffffffffff1916827bffffffffffffffffffffffffffffffffffffffffffffffffffffffff19161480610d7757507f5b5e139f000000000000000000000000000000000000000000000000000000007bffffffffffffffffffffffffffffffffffffffffffffffffffffffff1916827bffffffffffffffffffffffffffffffffffffffffffffffffffffffff1916145b80610d875750610d86826115af565b5b9050919050565b600080610d9a83611619565b9050600073ffffffffffffffffffffffffffffffffffffffff168173ffffffffffffffffffffffffffffffffffffffff1603610e0d57826040517f7e273289000000000000000000000000000000000000000000000000000000008152600401610e049190612011565b60405180910390fd5b80915050919050565b60006004600083815260200190815260200160002060009054906101000a900473ffffffffffffffffffffffffffffffffffffffff169050919050565b600033905090565b610e688383836001611656565b505050565b600080610e7984611619565b9050600073ffffffffffffffffffffffffffffffffffffffff168373ffffffffffffffffffffffffffffffffffffffff1614610ebb57610eba81848661181b565b5b600073ffffffffffffffffffffffffffffffffffffffff168173ffffffffffffffffffffffffffffffffffffffff1614610f4c57610efd600085600080611656565b6001600360008373ffffffffffffffffffffffffffffffffffffffff1673ffffffffffffffffffffffffffffffffffffffff168152602001908152602001600020600082825403925050819055505b600073ffffffffffffffffffffffffffffffffffffffff168573ffffffffffffffffffffffffffffffffffffffff1614610fcf576001600360008773ffffffffffffffffffffffffffffffffffffffff1673ffffffffffffffffffffffffffffffffffffffff168152602001908152602001600020600082825401925050819055505b846002600086815260200190815260200160002060006101000a81548173ffffffffffffffffffffffffffffffffffffffff021916908373ffffffffffffffffffffffffffffffffffffffff160217905550838573ffffffffffffffffffffffffffffffffffffffff168273ffffffffffffffffffffffffffffffffffffffff167fddf252ad1be2c89b69c2b068fc378daa952ba7f163c4a11628f55a4df523b3ef60405160405180910390a4809150509392505050565b6000600760009054906101000a900473ffffffffffffffffffffffffffffffffffffffff16905081600760006101000a81548173ffffffffffffffffffffffffffffffffffffffff021916908373ffffffffffffffffffffffffffffffffffffffff1602179055506000600860006101000a81548173ffffffffffffffffffffffffffffffffffffffff021916908373ffffffffffffffffffffffffffffffffffffffff1602179055508173ffffffffffffffffffffffffffffffffffffffff168173ffffffffffffffffffffffffffffffffffffffff167f8be0079c531659141344cd1fd0a4f28419497f9722a3daafe3b4186f6b6457e060405160405180910390a35050565b600073ffffffffffffffffffffffffffffffffffffffff168273ffffffffffffffffffffffffffffffffffffffff160361120057816040517f5b08ba180000000000000000000000000000000000000000000000000000000081526004016111f79190611efb565b60405180910390fd5b80600560008573ffffffffffffffffffffffffffffffffffffffff1673ffffffffffffffffffffffffffffffffffffffff16815260200190815260200160002060008473ffffffffffffffffffffffffffffffffffffffff1673ffffffffffffffffffffffffffffffffffffffff16815260200190815260200160002060006101000a81548160ff0219169083151502179055508173ffffffffffffffffffffffffffffffffffffffff168373ffffffffffffffffffffffffffffffffffffffff167f17307eab39ab6107e8899845ad3d59bd9653f200f220920489ca2b5937696c31836040516112f19190611d8a565b60405180910390a3505050565b60008373ffffffffffffffffffffffffffffffffffffffff163b11156114af578273ffffffffffffffffffffffffffffffffffffffff1663150b7a02611342610e53565b8685856040518563ffffffff1660e01b815260040161136494939291906126e0565b6020604051808303816000875af19250505080156113a057506040513d601f19601f8201168201806040525081019061139d9190612741565b60015b611424573d80600081146113d0576040519150601f19603f3d011682016040523d82523d6000602084013e6113d5565b606091505b50600081510361141c57836040517f64a0ae920000000000000000000000000000000000000000000000000000000081526004016114139190611efb565b60405180910390fd5b805181602001fd5b63150b7a0260e01b7bffffffffffffffffffffffffffffffffffffffffffffffffffffffff1916817bffffffffffffffffffffffffffffffffffffffffffffffffffffffff1916146114ad57836040517f64a0ae920000000000000000000000000000000000000000000000000000000081526004016114a49190611efb565b60405180910390fd5b505b50505050565b606060405180602001604052806000815250905090565b60606114d782610d8e565b5060006114e26114b5565b90506000815111611502576040518060200160405280600081525061152d565b8061150c846118df565b60405160200161151d9291906125f0565b6040516020818303038152906040525b915050919050565b61154f8282604051806020016040528060008152506119ad565b5050565b80600660008481526020019081526020016000209081611573919061291a565b507ff8e1a15aba9398e019f0b49df1a4fde98ee17ae345cb5f6b5e2c27f5033e8ce7826040516115a39190612011565b60405180910390a15050565b60007f01ffc9a7000000000000000000000000000000000000000000000000000000007bffffffffffffffffffffffffffffffffffffffffffffffffffffffff1916827bffffffffffffffffffffffffffffffffffffffffffffffffffffffff1916149050919050565b60006002600083815260200190815260200160002060009054906101000a900473ffffffffffffffffffffffffffffffffffffffff169050919050565b808061168f5750600073ffffffffffffffffffffffffffffffffffffffff168273ffffffffffffffffffffffffffffffffffffffff1614155b156117c357600061169f84610d8e565b9050600073ffffffffffffffffffffffffffffffffffffffff168373ffffffffffffffffffffffffffffffffffffffff161415801561170a57508273ffffffffffffffffffffffffffffffffffffffff168173ffffffffffffffffffffffffffffffffffffffff1614155b801561171d575061171b8184610b64565b155b1561175f57826040517fa9fbf51f0000000000000000000000000000000000000000000000000000000081526004016117569190611efb565b60405180910390fd5b81156117c157838573ffffffffffffffffffffffffffffffffffffffff168273ffffffffffffffffffffffffffffffffffffffff167f8c5be1e5ebec7d5bd14f71427d1e84f3dd0314c0f7b2291e5b200ac8c7c3b92560405160405180910390a45b505b836004600085815260200190815260200160002060006101000a81548173ffffffffffffffffffffffffffffffffffffffff021916908373ffffffffffffffffffffffffffffffffffffffff16021790555050505050565b6118268383836119c9565b6118da57600073ffffffffffffffffffffffffffffffffffffffff168373ffffffffffffffffffffffffffffffffffffffff160361189b57806040517f7e2732890000000000000000000000000000000000000000000000000000000081526004016118929190612011565b60405180910390fd5b81816040517f177e802f0000000000000000000000000000000000000000000000000000000081526004016118d19291906129ec565b60405180910390fd5b505050565b6060600060016118ee84611a8a565b01905060008167ffffffffffffffff81111561190d5761190c6120a2565b5b6040519080825280601f01601f19166020018201604052801561193f5781602001600182028036833780820191505090505b509050600082602001820190505b6001156119a2578080600190039150507f3031323334353637383961626364656600000000000000000000000000000000600a86061a8153600a858161199657611995612a15565b5b0494506000850361194d575b819350505050919050565b6119b78383611bdd565b6119c460008484846112fe565b505050565b60008073ffffffffffffffffffffffffffffffffffffffff168373ffffffffffffffffffffffffffffffffffffffff1614158015611a8157508273ffffffffffffffffffffffffffffffffffffffff168473ffffffffffffffffffffffffffffffffffffffff161480611a425750611a418484610b64565b5b80611a8057508273ffffffffffffffffffffffffffffffffffffffff16611a6883610e16565b73ffffffffffffffffffffffffffffffffffffffff16145b5b90509392505050565b600080600090507a184f03e93ff9f4daa797ed6e38ed64bf6a1f0100000000000000008310611ae8577a184f03e93ff9f4daa797ed6e38ed64bf6a1f0100000000000000008381611ade57611add612a15565b5b0492506040810190505b6d04ee2d6d415b85acef81000000008310611b25576d04ee2d6d415b85acef81000000008381611b1b57611b1a612a15565b5b0492506020810190505b662386f26fc100008310611b5457662386f26fc100008381611b4a57611b49612a15565b5b0492506010810190505b6305f5e1008310611b7d576305f5e1008381611b7357611b72612a15565b5b0492506008810190505b6127108310611ba2576127108381611b9857611b97612a15565b5b0492506004810190505b60648310611bc55760648381611bbb57611bba612a15565b5b0492506002810190505b600a8310611bd4576001810190505b80915050919050565b600073ffffffffffffffffffffffffffffffffffffffff168273ffffffffffffffffffffffffffffffffffffffff1603611c4f5760006040517f64a0ae92000000000000000000000000000000000000000000000000000000008152600401611c469190611efb565b60405180910390fd5b6000611c5d83836000610e6d565b9050600073ffffffffffffffffffffffffffffffffffffffff168173ffffffffffffffffffffffffffffffffffffffff1614611cd15760006040517f73c6ac6e000000000000000000000000000000000000000000000000000000008152600401611cc89190611efb565b60405180910390fd5b505050565b6000604051905090565b600080fd5b600080fd5b60007fffffffff0000000000000000000000000000000000000000000000000000000082169050919050565b611d1f81611cea565b8114611d2a57600080fd5b50565b600081359050611d3c81611d16565b92915050565b600060208284031215611d5857611d57611ce0565b5b6000611d6684828501611d2d565b91505092915050565b60008115159050919050565b611d8481611d6f565b82525050565b6000602082019050611d9f6000830184611d7b565b92915050565b600081519050919050565b600082825260208201905092915050565b60005b83811015611ddf578082015181840152602081019050611dc4565b60008484015250505050565b6000601f19601f8301169050919050565b6000611e0782611da5565b611e118185611db0565b9350611e21818560208601611dc1565b611e2a81611deb565b840191505092915050565b60006020820190508181036000830152611e4f8184611dfc565b905092915050565b6000819050919050565b611e6a81611e57565b8114611e7557600080fd5b50565b600081359050611e8781611e61565b92915050565b600060208284031215611ea357611ea2611ce0565b5b6000611eb184828501611e78565b91505092915050565b600073ffffffffffffffffffffffffffffffffffffffff82169050919050565b6000611ee582611eba565b9050919050565b611ef581611eda565b82525050565b6000602082019050611f106000830184611eec565b92915050565b611f1f81611eda565b8114611f2a57600080fd5b50565b600081359050611f3c81611f16565b92915050565b60008060408385031215611f5957611f58611ce0565b5b6000611f6785828601611f2d565b9250506020611f7885828601611e78565b9150509250929050565b600080600060608486031215611f9b57611f9a611ce0565b5b6000611fa986828701611f2d565b9350506020611fba86828701611f2d565b9250506040611fcb86828701611e78565b9150509250925092565b600060208284031215611feb57611fea611ce0565b5b6000611ff984828501611f2d565b91505092915050565b61200b81611e57565b82525050565b60006020820190506120266000830184612002565b92915050565b61203581611d6f565b811461204057600080fd5b50565b6000813590506120528161202c565b92915050565b6000806040838503121561206f5761206e611ce0565b5b600061207d85828601611f2d565b925050602061208e85828601612043565b9150509250929050565b600080fd5b600080fd5b7f4e487b7100000000000000000000000000000000000000000000000000000000600052604160045260246000fd5b6120da82611deb565b810181811067ffffffffffffffff821117156120f9576120f86120a2565b5b80604052505050565b600061210c611cd6565b905061211882826120d1565b919050565b600067ffffffffffffffff821115612138576121376120a2565b5b61214182611deb565b9050602081019050919050565b82818337600083830152505050565b600061217061216b8461211d565b612102565b90508281526020810184848401111561218c5761218b61209d565b5b61219784828561214e565b509392505050565b600082601f8301126121b4576121b3612098565b5b81356121c484826020860161215d565b91505092915050565b600080600080608085870312156121e7576121e6611ce0565b5b60006121f587828801611f2d565b945050602061220687828801611f2d565b935050604061221787828801611e78565b925050606085013567ffffffffffffffff81111561223857612237611ce5565b5b6122448782880161219f565b91505092959194509250565b6000806040838503121561226757612266611ce0565b5b600061227585828601611f2d565b925050602061228685828601611f2d565b9150509250929050565b600067ffffffffffffffff8211156122ab576122aa6120a2565b5b6122b482611deb565b9050602081019050919050565b60006122d46122cf84612290565b612102565b9050828152602081018484840111156122f0576122ef61209d565b5b6122fb84828561214e565b509392505050565b600082601f83011261231857612317612098565b5b81356123288482602086016122c1565b91505092915050565b6000806040838503121561234857612347611ce0565b5b600061235685828601611f2d565b925050602083013567ffffffffffffffff81111561237757612376611ce5565b5b61238385828601612303565b9150509250929050565b7f4e487b7100000000000000000000000000000000000000000000000000000000600052602260045260246000fd5b600060028204905060018216806123d457607f821691505b6020821081036123e7576123e661238d565b5b50919050565b60006060820190506124026000830186611eec565b61240f6020830185612002565b61241c6040830184611eec565b949350505050565b7f4f776e61626c653a2063616c6c6572206973206e6f742074686520706f74656e60008201527f7469616c206e6577206f776e6572000000000000000000000000000000000000602082015250565b6000612480602e83611db0565b915061248b82612424565b604082019050919050565b600060208201905081810360008301526124af81612473565b9050919050565b7f4f776e61626c653a2063616c6c6572206973206e6f7420746865206f776e6572600082015250565b60006124ec602083611db0565b91506124f7826124b6565b602082019050919050565b6000602082019050818103600083015261251b816124df565b9050919050565b7f4f776e61626c653a206e6577206f776e657220697320746865207a65726f206160008201527f6464726573730000000000000000000000000000000000000000000000000000602082015250565b600061257e602683611db0565b915061258982612522565b604082019050919050565b600060208201905081810360008301526125ad81612571565b9050919050565b600081905092915050565b60006125ca82611da5565b6125d481856125b4565b93506125e4818560208601611dc1565b80840191505092915050565b60006125fc82856125bf565b915061260882846125bf565b91508190509392505050565b7f4e487b7100000000000000000000000000000000000000000000000000000000600052601160045260246000fd5b600061264e82611e57565b91507fffffffffffffffffffffffffffffffffffffffffffffffffffffffffffffffff82036126805761267f612614565b5b600182019050919050565b600081519050919050565b600082825260208201905092915050565b60006126b28261268b565b6126bc8185612696565b93506126cc818560208601611dc1565b6126d581611deb565b840191505092915050565b60006080820190506126f56000830187611eec565b6127026020830186611eec565b61270f6040830185612002565b818103606083015261272181846126a7565b905095945050505050565b60008151905061273b81611d16565b92915050565b60006020828403121561275757612756611ce0565b5b60006127658482850161272c565b91505092915050565b60008190508160005260206000209050919050565b60006020601f8301049050919050565b600082821b905092915050565b6000600883026127d07fffffffffffffffffffffffffffffffffffffffffffffffffffffffffffffffff82612793565b6127da8683612793565b95508019841693508086168417925050509392505050565b6000819050919050565b600061281761281261280d84611e57565b6127f2565b611e57565b9050919050565b6000819050919050565b612831836127fc565b61284561283d8261281e565b8484546127a0565b825550505050565b600090565b61285a61284d565b612865818484612828565b505050565b5b818110156128895761287e600082612852565b60018101905061286b565b5050565b601f8211156128ce5761289f8161276e565b6128a884612783565b810160208510156128b7578190505b6128cb6128c385612783565b83018261286a565b50505b505050565b600082821c905092915050565b60006128f1600019846008026128d3565b1980831691505092915050565b600061290a83836128e0565b9150826002028217905092915050565b61292382611da5565b67ffffffffffffffff81111561293c5761293b6120a2565b5b61294682546123bc565b61295182828561288d565b600060209050601f8311600181146129845760008415612972578287015190505b61297c85826128fe565b8655506129e4565b601f1984166129928661276e565b60005b828110156129ba57848901518255600182019150602085019450602081019050612995565b868310156129d757848901516129d3601f8916826128e0565b8355505b6001600288020188555050505b505050505050565b6000604082019050612a016000830185611eec565b612a0e6020830184612002565b9392505050565b7f4e487b7100000000000000000000000000000000000000000000000000000000600052601260045260246000fdfea264697066735822122053679a0658e736ac7b371b86a9e569d6038cb5ca3238acf685f64512013c0d1a64736f6c63430008180033",
  "linkReferences": {},
  "deployedLinkReferences": {}
}