{
  "_format": "hh-sol-artifact-1",
  "contractName": "DealFinal",
  "sourceName": "contracts/DealFinal.sol",
  "abi": [
    {
      "inputs": [
        {
          "internalType": "address",
          "name": "_deal",
          "type": "address"
        },
        {
          "internalType": "address",
          "name": "_sequence",
          "type": "address"
        },
        {
          "internalType": "address",
          "name": "_request",
          "type": "address"
        },
        {
          "internalType": "address",
          "name": "_nftContract",
          "type": "address"
        }
      ],
      "stateMutability": "nonpayable",
      "type": "constructor"
    },
    {
      "anonymous": false,
      "inputs": [
        {
          "indexed": false,
          "internalType": "uint256",
          "name": "dealId",
          "type": "uint256"
        }
      ],
      "name": "DealDone",
      "type": "event"
    },
    {
      "inputs": [
        {
          "internalType": "address",
          "name": "",
          "type": "address"
        },
        {
          "internalType": "uint256",
          "name": "",
          "type": "uint256"
        }
      ],
      "name": "contractorDeals",
      "outputs": [
        {
          "internalType": "uint256",
          "name": "",
          "type": "uint256"
        }
      ],
      "stateMutability": "view",
      "type": "function"
    },
    {
      "inputs": [],
      "name": "deal",
      "outputs": [
        {
          "internalType": "contract Deal",
          "name": "",
          "type": "address"
        }
      ],
      "stateMutability": "view",
      "type": "function"
    },
    {
      "inputs": [
        {
          "internalType": "uint256",
          "name": "",
          "type": "uint256"
        }
      ],
      "name": "dealFinalised",
      "outputs": [
        {
          "internalType": "uint256",
          "name": "dealId",
          "type": "uint256"
        },
        {
          "internalType": "bool",
          "name": "finalised",
          "type": "bool"
        },
        {
          "internalType": "string",
          "name": "comment",
          "type": "string"
        }
      ],
      "stateMutability": "view",
      "type": "function"
    },
    {
      "inputs": [
        {
          "internalType": "uint256",
          "name": "_dealId",
          "type": "uint256"
        }
      ],
      "name": "doingDeal",
      "outputs": [],
      "stateMutability": "nonpayable",
      "type": "function"
    },
    {
      "inputs": [
        {
          "internalType": "address",
          "name": "contractorAddress",
          "type": "address"
        },
        {
          "internalType": "uint256",
          "name": "dealId",
          "type": "uint256"
        }
      ],
      "name": "findSuggestAmount",
      "outputs": [
        {
          "internalType": "uint256",
          "name": "",
          "type": "uint256"
        }
      ],
      "stateMutability": "view",
      "type": "function"
    },
    {
      "inputs": [
        {
          "internalType": "uint256",
          "name": "_dealId",
          "type": "uint256"
        }
      ],
      "name": "getAddressesByDealId",
      "outputs": [
        {
          "internalType": "address",
          "name": "contractorAddress",
          "type": "address"
        },
        {
          "internalType": "address",
          "name": "dealerAddress",
          "type": "address"
        }
      ],
      "stateMutability": "view",
      "type": "function"
    },
    {
      "inputs": [
        {
          "internalType": "address",
          "name": "contractorAddress",
          "type": "address"
        }
      ],
      "name": "getContractorDeals",
      "outputs": [
        {
          "internalType": "uint256[]",
          "name": "",
          "type": "uint256[]"
        }
      ],
      "stateMutability": "view",
      "type": "function"
    },
    {
      "inputs": [
        {
          "internalType": "uint256",
          "name": "_dealId",
          "type": "uint256"
        }
      ],
      "name": "isDealFinalised",
      "outputs": [
        {
          "internalType": "bool",
          "name": "",
          "type": "bool"
        },
        {
          "internalType": "string",
          "name": "",
          "type": "string"
        }
      ],
      "stateMutability": "view",
      "type": "function"
    },
    {
      "inputs": [],
      "name": "nftContract",
      "outputs": [
        {
          "internalType": "contract DealNFT",
          "name": "",
          "type": "address"
        }
      ],
      "stateMutability": "view",
      "type": "function"
    },
    {
      "inputs": [],
      "name": "request",
      "outputs": [
        {
          "internalType": "contract Request",
          "name": "",
          "type": "address"
        }
      ],
      "stateMutability": "view",
      "type": "function"
    },
    {
      "inputs": [],
      "name": "sequence",
      "outputs": [
        {
          "internalType": "contract Sequence",
          "name": "",
          "type": "address"
        }
      ],
      "stateMutability": "view",
      "type": "function"
    }
  ],
  "bytecode": "0x60806040523480156200001157600080fd5b50604051620028a7380380620028a78339818101604052810190620000379190620001af565b83600260006101000a81548173ffffffffffffffffffffffffffffffffffffffff021916908373ffffffffffffffffffffffffffffffffffffffff16021790555082600360006101000a81548173ffffffffffffffffffffffffffffffffffffffff021916908373ffffffffffffffffffffffffffffffffffffffff16021790555081600460006101000a81548173ffffffffffffffffffffffffffffffffffffffff021916908373ffffffffffffffffffffffffffffffffffffffff16021790555080600560006101000a81548173ffffffffffffffffffffffffffffffffffffffff021916908373ffffffffffffffffffffffffffffffffffffffff1602179055505050505062000221565b600080fd5b600073ffffffffffffffffffffffffffffffffffffffff82169050919050565b600062000177826200014a565b9050919050565b62000189816200016a565b81146200019557600080fd5b50565b600081519050620001a9816200017e565b92915050565b60008060008060808587031215620001cc57620001cb62000145565b5b6000620001dc8782880162000198565b9450506020620001ef8782880162000198565b9350506040620002028782880162000198565b9250506060620002158782880162000198565b91505092959194509250565b61267680620002316000396000f3fe608060405234801561001057600080fd5b50600436106100a95760003560e01c806362e28f221161007157806362e28f221461015457806395a53f6b146101845780639e5318d1146101b4578063d56d229d146101e5578063e43982e714610203578063f20a582814610234576100a9565b80632db4ea4c146100ae578063338cdca1146100ca5780633dc9d86c146100e8578063529d15cc14610118578063553df02114610136575b600080fd5b6100c860048036038101906100c39190611415565b610266565b005b6100d2610b08565b6040516100df91906114c1565b60405180910390f35b61010260048036038101906100fd919061151a565b610b2e565b60405161010f9190611569565b60405180910390f35b610120610c8c565b60405161012d91906115a5565b60405180910390f35b61013e610cb2565b60405161014b91906115e1565b60405180910390f35b61016e600480360381019061016991906115fc565b610cd8565b60405161017b91906116e7565b60405180910390f35b61019e6004803603810190610199919061151a565b610d6f565b6040516101ab9190611569565b60405180910390f35b6101ce60048036038101906101c99190611415565b610da0565b6040516101dc9291906117b4565b60405180910390f35b6101ed610e71565b6040516101fa9190611805565b60405180910390f35b61021d60048036038101906102189190611415565b610e97565b60405161022b92919061182f565b60405180910390f35b61024e60048036038101906102499190611415565b6110eb565b60405161025d93929190611858565b60405180910390f35b600080600080600260009054906101000a900473ffffffffffffffffffffffffffffffffffffffff1673ffffffffffffffffffffffffffffffffffffffff1663dbc23cf3866040518263ffffffff1660e01b81526004016102c79190611569565b600060405180830381865afa1580156102e4573d6000803e3d6000fd5b505050506040513d6000823e3d601f19601f8201168201806040525081019061030d91906119e6565b5050505050505093509350935093506000600360009054906101000a900473ffffffffffffffffffffffffffffffffffffffff1673ffffffffffffffffffffffffffffffffffffffff1663925b1c88876040518263ffffffff1660e01b81526004016103799190611569565b602060405180830381865afa158015610396573d6000803e3d6000fd5b505050506040513d601f19601f820116820180604052508101906103ba9190611b12565b03610660576000600460009054906101000a900473ffffffffffffffffffffffffffffffffffffffff1673ffffffffffffffffffffffffffffffffffffffff1663f4961f8e876040518263ffffffff1660e01b815260040161041c9190611569565b600060405180830381865afa158015610439573d6000803e3d6000fd5b505050506040513d6000823e3d601f19601f820116820180604052508101906104629190611c07565b51036105155760405180606001604052808681526020016001151581526020016040518060400160405280601681526020017f4e6f20436f6e74726163746f7273204170706c696564000000000000000000008152508152506000808781526020019081526020016000206000820151816000015560208201518160010160006101000a81548160ff021916908315150217905550604082015181600201908161050c9190611e52565b509050506105be565b60405180606001604052808681526020016001151581526020016040518060400160405280601f81526020017f416c6c20636f6e74726163746f7273206f7574206f66206275646765742121008152508152506000808781526020019081526020016000206000820151816000015560208201518160010160006101000a81548160ff02191690831515021790555060408201518160020190816105b99190611e52565b509050505b600260009054906101000a900473ffffffffffffffffffffffffffffffffffffffff1673ffffffffffffffffffffffffffffffffffffffff16631d23e74b868660648561060b9190611f53565b6040518463ffffffff1660e01b815260040161062993929190611f87565b600060405180830381600087803b15801561064357600080fd5b505af1158015610657573d6000803e3d6000fd5b50505050610b01565b6000600360009054906101000a900473ffffffffffffffffffffffffffffffffffffffff1673ffffffffffffffffffffffffffffffffffffffff16631597148a876040518263ffffffff1660e01b81526004016106bd9190611569565b600060405180830381865afa1580156106da573d6000803e3d6000fd5b505050506040513d6000823e3d601f19601f820116820180604052508101906107039190612129565b60008151811061071657610715612172565b5b602002602001015160000151905060006107308288610b2e565b905082811115610775576040517f08c379a000000000000000000000000000000000000000000000000000000000815260040161076c906121ed565b60405180910390fd5b6000819050600082856107889190611f53565b9050600260009054906101000a900473ffffffffffffffffffffffffffffffffffffffff1673ffffffffffffffffffffffffffffffffffffffff16631d23e74b8a86856040518463ffffffff1660e01b81526004016107e993929190611f87565b600060405180830381600087803b15801561080357600080fd5b505af1158015610817573d6000803e3d6000fd5b50505050600260009054906101000a900473ffffffffffffffffffffffffffffffffffffffff1673ffffffffffffffffffffffffffffffffffffffff16631d23e74b8a8a846040518463ffffffff1660e01b815260040161087a93929190611f87565b600060405180830381600087803b15801561089457600080fd5b505af11580156108a8573d6000803e3d6000fd5b50505050600086886108b9886111aa565b6040516020016108cb93929190612379565b60405160208183030381529060405290506000600560009054906101000a900473ffffffffffffffffffffffffffffffffffffffff1673ffffffffffffffffffffffffffffffffffffffff1663eacabe1487846040518363ffffffff1660e01b815260040161093b9291906123d6565b6020604051808303816000875af115801561095a573d6000803e3d6000fd5b505050506040513d601f19601f8201168201806040525081019061097e9190611b12565b905060405180606001604052808c81526020016001151581526020016040518060400160405280600981526020017f4465616c20446f6e6500000000000000000000000000000000000000000000008152508152506000808d81526020019081526020016000206000820151816000015560208201518160010160006101000a81548160ff0219169083151502179055506040820151816002019081610a249190611e52565b50905050600073ffffffffffffffffffffffffffffffffffffffff168673ffffffffffffffffffffffffffffffffffffffff1614610ac357600160008773ffffffffffffffffffffffffffffffffffffffff1673ffffffffffffffffffffffffffffffffffffffff1681526020019081526020016000208b90806001815401808255809150506001900390600052602060002001600090919091909150555b7f5db321c912038d694e6203be88f3ef59d4a741cf01698f293576bdedcc3e08f98b604051610af29190611569565b60405180910390a15050505050505b5050505050565b600460009054906101000a900473ffffffffffffffffffffffffffffffffffffffff1681565b600080600460009054906101000a900473ffffffffffffffffffffffffffffffffffffffff1673ffffffffffffffffffffffffffffffffffffffff1663a79326ee856040518263ffffffff1660e01b8152600401610b8c9190612406565b600060405180830381865afa158015610ba9573d6000803e3d6000fd5b505050506040513d6000823e3d601f19601f82011682018060405250810190610bd2919061255c565b905060008060005b8351811015610c3f5785848281518110610bf757610bf6612172565b5b60200260200101516020015103610c3257838181518110610c1b57610c1a612172565b5b602002602001015160400151925060019150610c3f565b8080600101915050610bda565b5080610c80576040517f08c379a0000000000000000000000000000000000000000000000000000000008152600401610c77906125f1565b60405180910390fd5b81935050505092915050565b600360009054906101000a900473ffffffffffffffffffffffffffffffffffffffff1681565b600260009054906101000a900473ffffffffffffffffffffffffffffffffffffffff1681565b6060600160008373ffffffffffffffffffffffffffffffffffffffff1673ffffffffffffffffffffffffffffffffffffffff168152602001908152602001600020805480602002602001604051908101604052809291908181526020018280548015610d6357602002820191906000526020600020905b815481526020019060010190808311610d4f575b50505050509050919050565b60016020528160005260406000208181548110610d8b57600080fd5b90600052602060002001600091509150505481565b6000606060008084815260200190815260200160002060010160009054906101000a900460ff16600080858152602001908152602001600020600201808054610de890611c7f565b80601f0160208091040260200160405190810160405280929190818152602001828054610e1490611c7f565b8015610e615780601f10610e3657610100808354040283529160200191610e61565b820191906000526020600020905b815481529060010190602001808311610e4457829003601f168201915b5050505050905091509150915091565b600560009054906101000a900473ffffffffffffffffffffffffffffffffffffffff1681565b600080600260009054906101000a900473ffffffffffffffffffffffffffffffffffffffff1673ffffffffffffffffffffffffffffffffffffffff1663dbc23cf3846040518263ffffffff1660e01b8152600401610ef59190611569565b600060405180830381865afa158015610f12573d6000803e3d6000fd5b505050506040513d6000823e3d601f19601f82011682018060405250810190610f3b91906119e6565b90919293949596979850909192939495969750909192939495965090919293949550909192939450909192935090919250909150905050809150506000600360009054906101000a900473ffffffffffffffffffffffffffffffffffffffff1673ffffffffffffffffffffffffffffffffffffffff1663925b1c88856040518263ffffffff1660e01b8152600401610fd39190611569565b602060405180830381865afa158015610ff0573d6000803e3d6000fd5b505050506040513d601f19601f820116820180604052508101906110149190611b12565b11156110e157600360009054906101000a900473ffffffffffffffffffffffffffffffffffffffff1673ffffffffffffffffffffffffffffffffffffffff16631597148a846040518263ffffffff1660e01b81526004016110759190611569565b600060405180830381865afa158015611092573d6000803e3d6000fd5b505050506040513d6000823e3d601f19601f820116820180604052508101906110bb9190612129565b6000815181106110ce576110cd612172565b5b60200260200101516000015191506110e6565b600091505b915091565b60006020528060005260406000206000915090508060000154908060010160009054906101000a900460ff169080600201805461112790611c7f565b80601f016020809104026020016040519081016040528092919081815260200182805461115390611c7f565b80156111a05780601f10611175576101008083540402835291602001916111a0565b820191906000526020600020905b81548152906001019060200180831161118357829003601f168201915b5050505050905083565b6060600060016111b984611278565b01905060008167ffffffffffffffff8111156111d8576111d76118b5565b5b6040519080825280601f01601f19166020018201604052801561120a5781602001600182028036833780820191505090505b509050600082602001820190505b60011561126d578080600190039150507f3031323334353637383961626364656600000000000000000000000000000000600a86061a8153600a858161126157611260612611565b5b04945060008503611218575b819350505050919050565b600080600090507a184f03e93ff9f4daa797ed6e38ed64bf6a1f01000000000000000083106112d6577a184f03e93ff9f4daa797ed6e38ed64bf6a1f01000000000000000083816112cc576112cb612611565b5b0492506040810190505b6d04ee2d6d415b85acef81000000008310611313576d04ee2d6d415b85acef8100000000838161130957611308612611565b5b0492506020810190505b662386f26fc10000831061134257662386f26fc10000838161133857611337612611565b5b0492506010810190505b6305f5e100831061136b576305f5e100838161136157611360612611565b5b0492506008810190505b612710831061139057612710838161138657611385612611565b5b0492506004810190505b606483106113b357606483816113a9576113a8612611565b5b0492506002810190505b600a83106113c2576001810190505b80915050919050565b6000604051905090565b600080fd5b600080fd5b6000819050919050565b6113f2816113df565b81146113fd57600080fd5b50565b60008135905061140f816113e9565b92915050565b60006020828403121561142b5761142a6113d5565b5b600061143984828501611400565b91505092915050565b600073ffffffffffffffffffffffffffffffffffffffff82169050919050565b6000819050919050565b600061148761148261147d84611442565b611462565b611442565b9050919050565b60006114998261146c565b9050919050565b60006114ab8261148e565b9050919050565b6114bb816114a0565b82525050565b60006020820190506114d660008301846114b2565b92915050565b60006114e782611442565b9050919050565b6114f7816114dc565b811461150257600080fd5b50565b600081359050611514816114ee565b92915050565b60008060408385031215611531576115306113d5565b5b600061153f85828601611505565b925050602061155085828601611400565b9150509250929050565b611563816113df565b82525050565b600060208201905061157e600083018461155a565b92915050565b600061158f8261148e565b9050919050565b61159f81611584565b82525050565b60006020820190506115ba6000830184611596565b92915050565b60006115cb8261148e565b9050919050565b6115db816115c0565b82525050565b60006020820190506115f660008301846115d2565b92915050565b600060208284031215611612576116116113d5565b5b600061162084828501611505565b91505092915050565b600081519050919050565b600082825260208201905092915050565b6000819050602082019050919050565b61165e816113df565b82525050565b60006116708383611655565b60208301905092915050565b6000602082019050919050565b600061169482611629565b61169e8185611634565b93506116a983611645565b8060005b838110156116da5781516116c18882611664565b97506116cc8361167c565b9250506001810190506116ad565b5085935050505092915050565b600060208201905081810360008301526117018184611689565b905092915050565b60008115159050919050565b61171e81611709565b82525050565b600081519050919050565b600082825260208201905092915050565b60005b8381101561175e578082015181840152602081019050611743565b60008484015250505050565b6000601f19601f8301169050919050565b600061178682611724565b611790818561172f565b93506117a0818560208601611740565b6117a98161176a565b840191505092915050565b60006040820190506117c96000830185611715565b81810360208301526117db818461177b565b90509392505050565b60006117ef8261148e565b9050919050565b6117ff816117e4565b82525050565b600060208201905061181a60008301846117f6565b92915050565b611829816114dc565b82525050565b60006040820190506118446000830185611820565b6118516020830184611820565b9392505050565b600060608201905061186d600083018661155a565b61187a6020830185611715565b818103604083015261188c818461177b565b9050949350505050565b6000815190506118a5816114ee565b92915050565b600080fd5b600080fd5b7f4e487b7100000000000000000000000000000000000000000000000000000000600052604160045260246000fd5b6118ed8261176a565b810181811067ffffffffffffffff8211171561190c5761190b6118b5565b5b80604052505050565b600061191f6113cb565b905061192b82826118e4565b919050565b600067ffffffffffffffff82111561194b5761194a6118b5565b5b6119548261176a565b9050602081019050919050565b600061197461196f84611930565b611915565b9050828152602081018484840111156119905761198f6118b0565b5b61199b848285611740565b509392505050565b600082601f8301126119b8576119b76118ab565b5b81516119c8848260208601611961565b91505092915050565b6000815190506119e0816113e9565b92915050565b60008060008060008060008060008060006101608c8e031215611a0c57611a0b6113d5565b5b6000611a1a8e828f01611896565b9b505060208c015167ffffffffffffffff811115611a3b57611a3a6113da565b5b611a478e828f016119a3565b9a505060408c015167ffffffffffffffff811115611a6857611a676113da565b5b611a748e828f016119a3565b9950506060611a858e828f016119d1565b9850506080611a968e828f016119d1565b97505060a0611aa78e828f016119d1565b96505060c0611ab88e828f016119d1565b95505060e0611ac98e828f016119d1565b945050610100611adb8e828f016119d1565b935050610120611aed8e828f016119d1565b925050610140611aff8e828f016119d1565b9150509295989b509295989b9093969950565b600060208284031215611b2857611b276113d5565b5b6000611b36848285016119d1565b91505092915050565b600067ffffffffffffffff821115611b5a57611b596118b5565b5b602082029050602081019050919050565b600080fd5b6000611b83611b7e84611b3f565b611915565b90508083825260208201905060208402830185811115611ba657611ba5611b6b565b5b835b81811015611bcf5780611bbb8882611896565b845260208401935050602081019050611ba8565b5050509392505050565b600082601f830112611bee57611bed6118ab565b5b8151611bfe848260208601611b70565b91505092915050565b600060208284031215611c1d57611c1c6113d5565b5b600082015167ffffffffffffffff811115611c3b57611c3a6113da565b5b611c4784828501611bd9565b91505092915050565b7f4e487b7100000000000000000000000000000000000000000000000000000000600052602260045260246000fd5b60006002820490506001821680611c9757607f821691505b602082108103611caa57611ca9611c50565b5b50919050565b60008190508160005260206000209050919050565b60006020601f8301049050919050565b600082821b905092915050565b600060088302611d127fffffffffffffffffffffffffffffffffffffffffffffffffffffffffffffffff82611cd5565b611d1c8683611cd5565b95508019841693508086168417925050509392505050565b6000611d4f611d4a611d45846113df565b611462565b6113df565b9050919050565b6000819050919050565b611d6983611d34565b611d7d611d7582611d56565b848454611ce2565b825550505050565b600090565b611d92611d85565b611d9d818484611d60565b505050565b5b81811015611dc157611db6600082611d8a565b600181019050611da3565b5050565b601f821115611e0657611dd781611cb0565b611de084611cc5565b81016020851015611def578190505b611e03611dfb85611cc5565b830182611da2565b50505b505050565b600082821c905092915050565b6000611e2960001984600802611e0b565b1980831691505092915050565b6000611e428383611e18565b9150826002028217905092915050565b611e5b82611724565b67ffffffffffffffff811115611e7457611e736118b5565b5b611e7e8254611c7f565b611e89828285611dc5565b600060209050601f831160018114611ebc5760008415611eaa578287015190505b611eb48582611e36565b865550611f1c565b601f198416611eca86611cb0565b60005b82811015611ef257848901518255600182019150602085019450602081019050611ecd565b86831015611f0f5784890151611f0b601f891682611e18565b8355505b6001600288020188555050505b505050505050565b7f4e487b7100000000000000000000000000000000000000000000000000000000600052601160045260246000fd5b6000611f5e826113df565b9150611f69836113df565b9250828203905081811115611f8157611f80611f24565b5b92915050565b6000606082019050611f9c600083018661155a565b611fa96020830185611820565b611fb6604083018461155a565b949350505050565b600067ffffffffffffffff821115611fd957611fd86118b5565b5b602082029050602081019050919050565b600080fd5b600080fd5b60006060828403121561200a57612009611fea565b5b6120146060611915565b9050600061202484828501611896565b600083015250602082015167ffffffffffffffff81111561204857612047611fef565b5b612054848285016119a3565b6020830152506040612068848285016119d1565b60408301525092915050565b600061208761208284611fbe565b611915565b905080838252602082019050602084028301858111156120aa576120a9611b6b565b5b835b818110156120f157805167ffffffffffffffff8111156120cf576120ce6118ab565b5b8086016120dc8982611ff4565b855260208501945050506020810190506120ac565b5050509392505050565b600082601f8301126121105761210f6118ab565b5b8151612120848260208601612074565b91505092915050565b60006020828403121561213f5761213e6113d5565b5b600082015167ffffffffffffffff81111561215d5761215c6113da565b5b612169848285016120fb565b91505092915050565b7f4e487b7100000000000000000000000000000000000000000000000000000000600052603260045260246000fd5b7f46696e616c20616d6f756e742065786365656473206465616c20616d6f756e74600082015250565b60006121d760208361172f565b91506121e2826121a1565b602082019050919050565b60006020820190508181036000830152612206816121ca565b9050919050565b600081905092915050565b7f7b226e616d65223a220000000000000000000000000000000000000000000000600082015250565b600061224e60098361220d565b915061225982612218565b600982019050919050565b600061226f82611724565b612279818561220d565b9350612289818560208601611740565b80840191505092915050565b7f222c20226465736372697074696f6e223a224465616c206265747765656e2000600082015250565b60006122cb601f8361220d565b91506122d682612295565b601f82019050919050565b7f20616e6420636f6e74726163746f72222c2022616d6f756e74223a0000000000600082015250565b6000612317601b8361220d565b9150612322826122e1565b601b82019050919050565b7f7d00000000000000000000000000000000000000000000000000000000000000600082015250565b600061236360018361220d565b915061236e8261232d565b600182019050919050565b600061238482612241565b91506123908286612264565b915061239b826122be565b91506123a78285612264565b91506123b28261230a565b91506123be8284612264565b91506123c982612356565b9150819050949350505050565b60006040820190506123eb6000830185611820565b81810360208301526123fd818461177b565b90509392505050565b600060208201905061241b6000830184611820565b92915050565b600067ffffffffffffffff82111561243c5761243b6118b5565b5b602082029050602081019050919050565b60006080828403121561246357612462611fea565b5b61246d6080611915565b9050600061247d84828501611896565b6000830152506020612491848285016119d1565b60208301525060406124a5848285016119d1565b60408301525060606124b9848285016119d1565b60608301525092915050565b60006124d86124d384612421565b611915565b905080838252602082019050608084028301858111156124fb576124fa611b6b565b5b835b818110156125245780612510888261244d565b8452602084019350506080810190506124fd565b5050509392505050565b600082601f830112612543576125426118ab565b5b81516125538482602086016124c5565b91505092915050565b600060208284031215612572576125716113d5565b5b600082015167ffffffffffffffff8111156125905761258f6113da565b5b61259c8482850161252e565b91505092915050565b7f4e6f20696e7465726573742077697468206465616c496420666f756e64000000600082015250565b60006125db601d8361172f565b91506125e6826125a5565b602082019050919050565b6000602082019050818103600083015261260a816125ce565b9050919050565b7f4e487b7100000000000000000000000000000000000000000000000000000000600052601260045260246000fdfea2646970667358221220d826ab3ba44e6c98eb49898e244dd730e56d506093d7eca56fd54d01558e791364736f6c63430008180033",
  "linkReferences": {},
  "deployedLinkReferences": {}
}