{
  "_format": "hh-sol-artifact-1",
  "contractName": "Dealer",
  "sourceName": "contracts/Dealer.sol",
  "abi": [
    {
      "anonymous": false,
      "inputs": [
        {
          "indexed": false,
          "internalType": "address",
          "name": "addressDealer",
          "type": "address"
        },
        {
          "indexed": false,
          "internalType": "string",
          "name": "name",
          "type": "string"
        }
      ],
      "name": "DealerAdded",
      "type": "event"
    },
    {
      "inputs": [
        {
          "internalType": "string",
          "name": "_name",
          "type": "string"
        }
      ],
      "name": "addDealer",
      "outputs": [],
      "stateMutability": "nonpayable",
      "type": "function"
    },
    {
      "inputs": [
        {
          "internalType": "address",
          "name": "",
          "type": "address"
        }
      ],
      "name": "dealerNames",
      "outputs": [
        {
          "internalType": "string",
          "name": "",
          "type": "string"
        }
      ],
      "stateMutability": "view",
      "type": "function"
    },
    {
      "inputs": [],
      "name": "getDealerLength",
      "outputs": [
        {
          "internalType": "uint256",
          "name": "",
          "type": "uint256"
        }
      ],
      "stateMutability": "view",
      "type": "function"
    },
    {
      "inputs": [
        {
          "internalType": "address",
          "name": "_dealerAddress",
          "type": "address"
        }
      ],
      "name": "getDealerName",
      "outputs": [
        {
          "internalType": "string",
          "name": "",
          "type": "string"
        }
      ],
      "stateMutability": "view",
      "type": "function"
    },
    {
      "inputs": [
        {
          "internalType": "uint256",
          "name": "index",
          "type": "uint256"
        }
      ],
      "name": "getDealers",
      "outputs": [
        {
          "internalType": "address",
          "name": "addressDealer",
          "type": "address"
        },
        {
          "internalType": "string",
          "name": "name",
          "type": "string"
        }
      ],
      "stateMutability": "view",
      "type": "function"
    },
    {
      "inputs": [
        {
          "internalType": "address",
          "name": "",
          "type": "address"
        }
      ],
      "name": "hasAddedDealer",
      "outputs": [
        {
          "internalType": "bool",
          "name": "",
          "type": "bool"
        }
      ],
      "stateMutability": "view",
      "type": "function"
    },
    {
      "inputs": [
        {
          "internalType": "uint256",
          "name": "",
          "type": "uint256"
        }
      ],
      "name": "infos",
      "outputs": [
        {
          "internalType": "address",
          "name": "addressDealer",
          "type": "address"
        },
        {
          "internalType": "string",
          "name": "name",
          "type": "string"
        }
      ],
      "stateMutability": "view",
      "type": "function"
    }
  ],
  "bytecode": "0x608060405234801561001057600080fd5b50610eb1806100206000396000f3fe608060405234801561001057600080fd5b506004361061007d5760003560e01c80635cf620021161005b5780635cf62002146101135780637136c4321461013157806395f0eb9c1461014d578063c9a86a681461017e5761007d565b8063053cfc2b1461008257806328de3c9b146100b25780633aaddad5146100e3575b600080fd5b61009c600480360381019061009791906107a3565b6101ae565b6040516100a99190610860565b60405180910390f35b6100cc60048036038101906100c791906108b8565b61027f565b6040516100da9291906108f4565b60405180910390f35b6100fd60048036038101906100f891906107a3565b61035b565b60405161010a9190610860565b60405180910390f35b61011b6103fb565b6040516101289190610933565b60405180910390f35b61014b60048036038101906101469190610a83565b610407565b005b610167600480360381019061016291906108b8565b610629565b6040516101759291906108f4565b60405180910390f35b610198600480360381019061019391906107a3565b610711565b6040516101a59190610ae7565b60405180910390f35b6060600260008373ffffffffffffffffffffffffffffffffffffffff1673ffffffffffffffffffffffffffffffffffffffff16815260200190815260200160002080546101fa90610b31565b80601f016020809104026020016040519081016040528092919081815260200182805461022690610b31565b80156102735780601f1061024857610100808354040283529160200191610273565b820191906000526020600020905b81548152906001019060200180831161025657829003601f168201915b50505050509050919050565b6000818154811061028f57600080fd5b90600052602060002090600202016000915090508060000160009054906101000a900473ffffffffffffffffffffffffffffffffffffffff16908060010180546102d890610b31565b80601f016020809104026020016040519081016040528092919081815260200182805461030490610b31565b80156103515780601f1061032657610100808354040283529160200191610351565b820191906000526020600020905b81548152906001019060200180831161033457829003601f168201915b5050505050905082565b6002602052806000526040600020600091509050805461037a90610b31565b80601f01602080910402602001604051908101604052809291908181526020018280546103a690610b31565b80156103f35780601f106103c8576101008083540402835291602001916103f3565b820191906000526020600020905b8154815290600101906020018083116103d657829003601f168201915b505050505081565b60008080549050905090565b600160003373ffffffffffffffffffffffffffffffffffffffff1673ffffffffffffffffffffffffffffffffffffffff16815260200190815260200160002060009054906101000a900460ff1615610494576040517f08c379a000000000000000000000000000000000000000000000000000000000815260040161048b90610bae565b60405180910390fd5b600060405180604001604052803373ffffffffffffffffffffffffffffffffffffffff16815260200183815250908060018154018082558091505060019003906000526020600020906002020160009091909190915060008201518160000160006101000a81548173ffffffffffffffffffffffffffffffffffffffff021916908373ffffffffffffffffffffffffffffffffffffffff16021790555060208201518160010190816105469190610d7a565b50505060018060003373ffffffffffffffffffffffffffffffffffffffff1673ffffffffffffffffffffffffffffffffffffffff16815260200190815260200160002060006101000a81548160ff02191690831515021790555080600260003373ffffffffffffffffffffffffffffffffffffffff1673ffffffffffffffffffffffffffffffffffffffff16815260200190815260200160002090816105ec9190610d7a565b507feafea3c21154ee9169ae6c7e0526795c8b57020d56e5ad75410c361cf6ff9699338260405161061e9291906108f4565b60405180910390a150565b60006060600080848154811061064257610641610e4c565b5b906000526020600020906002020190508060000160009054906101000a900473ffffffffffffffffffffffffffffffffffffffff168160010180805461068790610b31565b80601f01602080910402602001604051908101604052809291908181526020018280546106b390610b31565b80156107005780601f106106d557610100808354040283529160200191610700565b820191906000526020600020905b8154815290600101906020018083116106e357829003601f168201915b505050505090509250925050915091565b60016020528060005260406000206000915054906101000a900460ff1681565b6000604051905090565b600080fd5b600080fd5b600073ffffffffffffffffffffffffffffffffffffffff82169050919050565b600061077082610745565b9050919050565b61078081610765565b811461078b57600080fd5b50565b60008135905061079d81610777565b92915050565b6000602082840312156107b9576107b861073b565b5b60006107c78482850161078e565b91505092915050565b600081519050919050565b600082825260208201905092915050565b60005b8381101561080a5780820151818401526020810190506107ef565b60008484015250505050565b6000601f19601f8301169050919050565b6000610832826107d0565b61083c81856107db565b935061084c8185602086016107ec565b61085581610816565b840191505092915050565b6000602082019050818103600083015261087a8184610827565b905092915050565b6000819050919050565b61089581610882565b81146108a057600080fd5b50565b6000813590506108b28161088c565b92915050565b6000602082840312156108ce576108cd61073b565b5b60006108dc848285016108a3565b91505092915050565b6108ee81610765565b82525050565b600060408201905061090960008301856108e5565b818103602083015261091b8184610827565b90509392505050565b61092d81610882565b82525050565b60006020820190506109486000830184610924565b92915050565b600080fd5b600080fd5b7f4e487b7100000000000000000000000000000000000000000000000000000000600052604160045260246000fd5b61099082610816565b810181811067ffffffffffffffff821117156109af576109ae610958565b5b80604052505050565b60006109c2610731565b90506109ce8282610987565b919050565b600067ffffffffffffffff8211156109ee576109ed610958565b5b6109f782610816565b9050602081019050919050565b82818337600083830152505050565b6000610a26610a21846109d3565b6109b8565b905082815260208101848484011115610a4257610a41610953565b5b610a4d848285610a04565b509392505050565b600082601f830112610a6a57610a6961094e565b5b8135610a7a848260208601610a13565b91505092915050565b600060208284031215610a9957610a9861073b565b5b600082013567ffffffffffffffff811115610ab757610ab6610740565b5b610ac384828501610a55565b91505092915050565b60008115159050919050565b610ae181610acc565b82525050565b6000602082019050610afc6000830184610ad8565b92915050565b7f4e487b7100000000000000000000000000000000000000000000000000000000600052602260045260246000fd5b60006002820490506001821680610b4957607f821691505b602082108103610b5c57610b5b610b02565b5b50919050565b7f596f752063616e206f6e6c7920616464206f6e65204465616c65722e00000000600082015250565b6000610b98601c836107db565b9150610ba382610b62565b602082019050919050565b60006020820190508181036000830152610bc781610b8b565b9050919050565b60008190508160005260206000209050919050565b60006020601f8301049050919050565b600082821b905092915050565b600060088302610c307fffffffffffffffffffffffffffffffffffffffffffffffffffffffffffffffff82610bf3565b610c3a8683610bf3565b95508019841693508086168417925050509392505050565b6000819050919050565b6000610c77610c72610c6d84610882565b610c52565b610882565b9050919050565b6000819050919050565b610c9183610c5c565b610ca5610c9d82610c7e565b848454610c00565b825550505050565b600090565b610cba610cad565b610cc5818484610c88565b505050565b5b81811015610ce957610cde600082610cb2565b600181019050610ccb565b5050565b601f821115610d2e57610cff81610bce565b610d0884610be3565b81016020851015610d17578190505b610d2b610d2385610be3565b830182610cca565b50505b505050565b600082821c905092915050565b6000610d5160001984600802610d33565b1980831691505092915050565b6000610d6a8383610d40565b9150826002028217905092915050565b610d83826107d0565b67ffffffffffffffff811115610d9c57610d9b610958565b5b610da68254610b31565b610db1828285610ced565b600060209050601f831160018114610de45760008415610dd2578287015190505b610ddc8582610d5e565b865550610e44565b601f198416610df286610bce565b60005b82811015610e1a57848901518255600182019150602085019450602081019050610df5565b86831015610e375784890151610e33601f891682610d40565b8355505b6001600288020188555050505b505050505050565b7f4e487b7100000000000000000000000000000000000000000000000000000000600052603260045260246000fdfea2646970667358221220b85333aac7ad13328bdabc397707b6ccd31828a04e627d0de8d9a03e101da4c964736f6c63430008180033",
  "linkReferences": {},
  "deployedLinkReferences": {}
}