{
  "_format": "hh-sol-artifact-1",
  "contractName": "Deal",
  "sourceName": "contracts/Deal.sol",
  "abi": [
    {
      "inputs": [
        {
          "internalType": "address",
          "name": "_dealerContractAddress",
          "type": "address"
        }
      ],
      "stateMutability": "nonpayable",
      "type": "constructor"
    },
    {
      "anonymous": false,
      "inputs": [
        {
          "indexed": true,
          "internalType": "address",
          "name": "dealerAddress",
          "type": "address"
        },
        {
          "indexed": false,
          "internalType": "string",
          "name": "dealerName",
          "type": "string"
        },
        {
          "indexed": false,
          "internalType": "string",
          "name": "dealName",
          "type": "string"
        },
        {
          "indexed": false,
          "internalType": "uint256",
          "name": "amount",
          "type": "uint256"
        },
        {
          "indexed": false,
          "internalType": "uint256",
          "name": "needFinancialCapabilities",
          "type": "uint256"
        },
        {
          "indexed": false,
          "internalType": "uint256",
          "name": "needTechCapabilities",
          "type": "uint256"
        },
        {
          "indexed": false,
          "internalType": "uint256",
          "name": "needExperience",
          "type": "uint256"
        },
        {
          "indexed": false,
          "internalType": "uint256",
          "name": "needPerformance",
          "type": "uint256"
        },
        {
          "indexed": false,
          "internalType": "uint256",
          "name": "needHealthAndSafety",
          "type": "uint256"
        },
        {
          "indexed": false,
          "internalType": "uint256",
          "name": "dealOpeningTime",
          "type": "uint256"
        },
        {
          "indexed": false,
          "internalType": "uint256",
          "name": "dealClosingTime",
          "type": "uint256"
        }
      ],
      "name": "DetailsAdded",
      "type": "event"
    },
    {
      "inputs": [
        {
          "internalType": "string",
          "name": "_dealName",
          "type": "string"
        },
        {
          "internalType": "uint256",
          "name": "_needFinancialCapabilities",
          "type": "uint256"
        },
        {
          "internalType": "uint256",
          "name": "_needTechCapabilities",
          "type": "uint256"
        },
        {
          "internalType": "uint256",
          "name": "_needExperience",
          "type": "uint256"
        },
        {
          "internalType": "uint256",
          "name": "_needPerformance",
          "type": "uint256"
        },
        {
          "internalType": "uint256",
          "name": "_needHealthAndSafety",
          "type": "uint256"
        },
        {
          "internalType": "uint256",
          "name": "_dealClosingTime",
          "type": "uint256"
        }
      ],
      "name": "addDetails",
      "outputs": [],
      "stateMutability": "payable",
      "type": "function"
    },
    {
      "inputs": [],
      "name": "dealCount",
      "outputs": [
        {
          "internalType": "uint256",
          "name": "",
          "type": "uint256"
        }
      ],
      "stateMutability": "view",
      "type": "function"
    },
    {
      "inputs": [],
      "name": "dealerContract",
      "outputs": [
        {
          "internalType": "contract Dealer",
          "name": "",
          "type": "address"
        }
      ],
      "stateMutability": "view",
      "type": "function"
    },
    {
      "inputs": [
        {
          "internalType": "address",
          "name": "",
          "type": "address"
        },
        {
          "internalType": "uint256",
          "name": "",
          "type": "uint256"
        }
      ],
      "name": "dealerDeals",
      "outputs": [
        {
          "internalType": "uint256",
          "name": "",
          "type": "uint256"
        }
      ],
      "stateMutability": "view",
      "type": "function"
    },
    {
      "inputs": [
        {
          "internalType": "uint256",
          "name": "",
          "type": "uint256"
        }
      ],
      "name": "deals",
      "outputs": [
        {
          "internalType": "address",
          "name": "dealerAddress",
          "type": "address"
        },
        {
          "internalType": "string",
          "name": "dealerName",
          "type": "string"
        },
        {
          "internalType": "string",
          "name": "dealName",
          "type": "string"
        },
        {
          "internalType": "uint256",
          "name": "amount",
          "type": "uint256"
        },
        {
          "internalType": "uint256",
          "name": "needFinancialCapabilities",
          "type": "uint256"
        },
        {
          "internalType": "uint256",
          "name": "needTechCapabilities",
          "type": "uint256"
        },
        {
          "internalType": "uint256",
          "name": "needExperience",
          "type": "uint256"
        },
        {
          "internalType": "uint256",
          "name": "needPerformance",
          "type": "uint256"
        },
        {
          "internalType": "uint256",
          "name": "needHealthAndSafety",
          "type": "uint256"
        },
        {
          "internalType": "uint256",
          "name": "dealOpeningTime",
          "type": "uint256"
        },
        {
          "internalType": "uint256",
          "name": "dealClosingTime",
          "type": "uint256"
        }
      ],
      "stateMutability": "view",
      "type": "function"
    },
    {
      "inputs": [
        {
          "internalType": "uint256",
          "name": "index",
          "type": "uint256"
        }
      ],
      "name": "getDealDetails",
      "outputs": [
        {
          "internalType": "address",
          "name": "dealerAddress",
          "type": "address"
        },
        {
          "internalType": "string",
          "name": "dealerName",
          "type": "string"
        },
        {
          "internalType": "string",
          "name": "dealName",
          "type": "string"
        },
        {
          "internalType": "uint256",
          "name": "amount",
          "type": "uint256"
        },
        {
          "internalType": "uint256",
          "name": "needFinancialCapabilities",
          "type": "uint256"
        },
        {
          "internalType": "uint256",
          "name": "needTechCapabilities",
          "type": "uint256"
        },
        {
          "internalType": "uint256",
          "name": "needExperience",
          "type": "uint256"
        },
        {
          "internalType": "uint256",
          "name": "needPerformance",
          "type": "uint256"
        },
        {
          "internalType": "uint256",
          "name": "needHealthAndSafety",
          "type": "uint256"
        },
        {
          "internalType": "uint256",
          "name": "dealOpeningTime",
          "type": "uint256"
        },
        {
          "internalType": "uint256",
          "name": "dealClosingTime",
          "type": "uint256"
        }
      ],
      "stateMutability": "view",
      "type": "function"
    },
    {
      "inputs": [
        {
          "internalType": "address",
          "name": "_dealerAddress",
          "type": "address"
        }
      ],
      "name": "getDealIdsByDealer",
      "outputs": [
        {
          "internalType": "uint256[]",
          "name": "",
          "type": "uint256[]"
        }
      ],
      "stateMutability": "view",
      "type": "function"
    },
    {
      "inputs": [
        {
          "internalType": "address",
          "name": "_dealerAddress",
          "type": "address"
        }
      ],
      "name": "getDealsByDealer",
      "outputs": [
        {
          "components": [
            {
              "internalType": "address",
              "name": "dealerAddress",
              "type": "address"
            },
            {
              "internalType": "string",
              "name": "dealerName",
              "type": "string"
            },
            {
              "internalType": "string",
              "name": "dealName",
              "type": "string"
            },
            {
              "internalType": "uint256",
              "name": "amount",
              "type": "uint256"
            },
            {
              "internalType": "uint256",
              "name": "needFinancialCapabilities",
              "type": "uint256"
            },
            {
              "internalType": "uint256",
              "name": "needTechCapabilities",
              "type": "uint256"
            },
            {
              "internalType": "uint256",
              "name": "needExperience",
              "type": "uint256"
            },
            {
              "internalType": "uint256",
              "name": "needPerformance",
              "type": "uint256"
            },
            {
              "internalType": "uint256",
              "name": "needHealthAndSafety",
              "type": "uint256"
            },
            {
              "internalType": "uint256",
              "name": "dealOpeningTime",
              "type": "uint256"
            },
            {
              "internalType": "uint256",
              "name": "dealClosingTime",
              "type": "uint256"
            }
          ],
          "internalType": "struct Deal.DealInfo[]",
          "name": "",
          "type": "tuple[]"
        }
      ],
      "stateMutability": "view",
      "type": "function"
    },
    {
      "inputs": [
        {
          "internalType": "uint256",
          "name": "_dealId",
          "type": "uint256"
        },
        {
          "internalType": "address",
          "name": "_contractor",
          "type": "address"
        },
        {
          "internalType": "uint256",
          "name": "_amount",
          "type": "uint256"
        }
      ],
      "name": "transferFunds",
      "outputs": [],
      "stateMutability": "nonpayable",
      "type": "function"
    }
  ],
  "bytecode": "0x60806040523480156200001157600080fd5b5060405162001e7738038062001e778339818101604052810190620000379190620000e9565b80600260006101000a81548173ffffffffffffffffffffffffffffffffffffffff021916908373ffffffffffffffffffffffffffffffffffffffff160217905550506200011b565b600080fd5b600073ffffffffffffffffffffffffffffffffffffffff82169050919050565b6000620000b18262000084565b9050919050565b620000c381620000a4565b8114620000cf57600080fd5b50565b600081519050620000e381620000b8565b92915050565b6000602082840312156200010257620001016200007f565b5b60006200011284828501620000d2565b91505092915050565b611d4c806200012b6000396000f3fe6080604052600436106100865760003560e01c80637568f7f6116100595780637568f7f61461016357806383be9488146101a05780639d49e54d146101dd578063dbc23cf3146101f9578063eadb3c9c1461024057610086565b806303988f841461008b5780631d23e74b146100d2578063463850cd146100fb5780636a53e77c14610126575b600080fd5b34801561009757600080fd5b506100b260048036038101906100ad9190610ea1565b61026b565b6040516100c99b9a99989796959493929190610fae565b60405180910390f35b3480156100de57600080fd5b506100f960048036038101906100f49190611093565b610405565b005b34801561010757600080fd5b50610110610504565b60405161011d9190611145565b60405180910390f35b34801561013257600080fd5b5061014d60048036038101906101489190611160565b61052a565b60405161015a919061124b565b60405180910390f35b34801561016f57600080fd5b5061018a60048036038101906101859190611160565b6105c1565b604051610197919061147e565b60405180910390f35b3480156101ac57600080fd5b506101c760048036038101906101c291906114a0565b6108bc565b6040516101d491906114e0565b60405180910390f35b6101f760048036038101906101f29190611630565b6108ed565b005b34801561020557600080fd5b50610220600480360381019061021b9190610ea1565b610c12565b6040516102379b9a99989796959493929190610fae565b60405180910390f35b34801561024c57600080fd5b50610255610ddb565b60405161026291906114e0565b60405180910390f35b6000818154811061027b57600080fd5b90600052602060002090600b02016000915090508060000160009054906101000a900473ffffffffffffffffffffffffffffffffffffffff16908060010180546102c49061171d565b80601f01602080910402602001604051908101604052809291908181526020018280546102f09061171d565b801561033d5780601f106103125761010080835404028352916020019161033d565b820191906000526020600020905b81548152906001019060200180831161032057829003601f168201915b5050505050908060020180546103529061171d565b80601f016020809104026020016040519081016040528092919081815260200182805461037e9061171d565b80156103cb5780601f106103a0576101008083540402835291602001916103cb565b820191906000526020600020905b8154815290600101906020018083116103ae57829003601f168201915b50505050509080600301549080600401549080600501549080600601549080600701549080600801549080600901549080600a015490508b565b600080848154811061041a5761041961174e565b5b90600052602060002090600b020190504281600a015410610470576040517f08c379a0000000000000000000000000000000000000000000000000000000008152600401610467906117c9565b60405180910390fd5b80600301548211156104b7576040517f08c379a00000000000000000000000000000000000000000000000000000000081526004016104ae90611835565b60405180910390fd5b8273ffffffffffffffffffffffffffffffffffffffff166108fc839081150290604051600060405180830381858888f193505050501580156104fd573d6000803e3d6000fd5b5050505050565b600260009054906101000a900473ffffffffffffffffffffffffffffffffffffffff1681565b6060600160008373ffffffffffffffffffffffffffffffffffffffff1673ffffffffffffffffffffffffffffffffffffffff1681526020019081526020016000208054806020026020016040519081016040528092919081815260200182805480156105b557602002820191906000526020600020905b8154815260200190600101908083116105a1575b50505050509050919050565b60606000600160008473ffffffffffffffffffffffffffffffffffffffff1673ffffffffffffffffffffffffffffffffffffffff16815260200190815260200160002090506000818054905067ffffffffffffffff81111561062657610625611505565b5b60405190808252806020026020018201604052801561065f57816020015b61064c610de7565b8152602001906001900390816106445790505b50905060005b82805490508110156108b15760008382815481106106865761068561174e565b5b9060005260206000200154815481106106a2576106a161174e565b5b90600052602060002090600b0201604051806101600160405290816000820160009054906101000a900473ffffffffffffffffffffffffffffffffffffffff1673ffffffffffffffffffffffffffffffffffffffff1673ffffffffffffffffffffffffffffffffffffffff1681526020016001820180546107229061171d565b80601f016020809104026020016040519081016040528092919081815260200182805461074e9061171d565b801561079b5780601f106107705761010080835404028352916020019161079b565b820191906000526020600020905b81548152906001019060200180831161077e57829003601f168201915b505050505081526020016002820180546107b49061171d565b80601f01602080910402602001604051908101604052809291908181526020018280546107e09061171d565b801561082d5780601f106108025761010080835404028352916020019161082d565b820191906000526020600020905b81548152906001019060200180831161081057829003601f168201915b5050505050815260200160038201548152602001600482015481526020016005820154815260200160068201548152602001600782015481526020016008820154815260200160098201548152602001600a820154815250508282815181106108995761089861174e565b5b60200260200101819052508080600101915050610665565b508092505050919050565b600160205281600052604060002081815481106108d857600080fd5b90600052602060002001600091509150505481565b6000600260009054906101000a900473ffffffffffffffffffffffffffffffffffffffff1673ffffffffffffffffffffffffffffffffffffffff1663053cfc2b336040518263ffffffff1660e01b815260040161094a9190611855565b600060405180830381865afa158015610967573d6000803e3d6000fd5b505050506040513d6000823e3d601f19601f8201168201806040525081019061099091906118e0565b905060008151116109d6576040517f08c379a00000000000000000000000000000000000000000000000000000000081526004016109cd90611975565b60405180910390fd5b60006040518061016001604052803373ffffffffffffffffffffffffffffffffffffffff1681526020018381526020018a81526020013481526020018981526020018881526020018781526020018681526020018581526020014281526020018481525090806001815401808255809150506001900390600052602060002090600b020160009091909190915060008201518160000160006101000a81548173ffffffffffffffffffffffffffffffffffffffff021916908373ffffffffffffffffffffffffffffffffffffffff1602179055506020820151816001019081610abf9190611b37565b506040820151816002019081610ad59190611b37565b50606082015181600301556080820151816004015560a0820151816005015560c0820151816006015560e082015181600701556101008201518160080155610120820151816009015561014082015181600a0155505060006001600080549050610b3f9190611c38565b9050600160003373ffffffffffffffffffffffffffffffffffffffff1673ffffffffffffffffffffffffffffffffffffffff1681526020019081526020016000208190806001815401808255809150506001900390600052602060002001600090919091909150553373ffffffffffffffffffffffffffffffffffffffff167ff0304eef80a9960ca2e9486b2f8b613b117ea1a72f8951881576ab3b6fd7cb84838b348c8c8c8c8c428d604051610bff9a99989796959493929190611c6c565b60405180910390a2505050505050505050565b60006060806000806000806000806000806000808d81548110610c3857610c3761174e565b5b90600052602060002090600b020190508060000160009054906101000a900473ffffffffffffffffffffffffffffffffffffffff16816001018260020183600301548460040154856005015486600601548760070154886008015489600901548a600a0154898054610ca99061171d565b80601f0160208091040260200160405190810160405280929190818152602001828054610cd59061171d565b8015610d225780601f10610cf757610100808354040283529160200191610d22565b820191906000526020600020905b815481529060010190602001808311610d0557829003601f168201915b50505050509950888054610d359061171d565b80601f0160208091040260200160405190810160405280929190818152602001828054610d619061171d565b8015610dae5780601f10610d8357610100808354040283529160200191610dae565b820191906000526020600020905b815481529060010190602001808311610d9157829003601f168201915b505050505098509b509b509b509b509b509b509b509b509b509b509b505091939597999b90929496989a50565b60008080549050905090565b604051806101600160405280600073ffffffffffffffffffffffffffffffffffffffff168152602001606081526020016060815260200160008152602001600081526020016000815260200160008152602001600081526020016000815260200160008152602001600081525090565b6000604051905090565b600080fd5b600080fd5b6000819050919050565b610e7e81610e6b565b8114610e8957600080fd5b50565b600081359050610e9b81610e75565b92915050565b600060208284031215610eb757610eb6610e61565b5b6000610ec584828501610e8c565b91505092915050565b600073ffffffffffffffffffffffffffffffffffffffff82169050919050565b6000610ef982610ece565b9050919050565b610f0981610eee565b82525050565b600081519050919050565b600082825260208201905092915050565b60005b83811015610f49578082015181840152602081019050610f2e565b60008484015250505050565b6000601f19601f8301169050919050565b6000610f7182610f0f565b610f7b8185610f1a565b9350610f8b818560208601610f2b565b610f9481610f55565b840191505092915050565b610fa881610e6b565b82525050565b600061016082019050610fc4600083018e610f00565b8181036020830152610fd6818d610f66565b90508181036040830152610fea818c610f66565b9050610ff9606083018b610f9f565b611006608083018a610f9f565b61101360a0830189610f9f565b61102060c0830188610f9f565b61102d60e0830187610f9f565b61103b610100830186610f9f565b611049610120830185610f9f565b611057610140830184610f9f565b9c9b505050505050505050505050565b61107081610eee565b811461107b57600080fd5b50565b60008135905061108d81611067565b92915050565b6000806000606084860312156110ac576110ab610e61565b5b60006110ba86828701610e8c565b93505060206110cb8682870161107e565b92505060406110dc86828701610e8c565b9150509250925092565b6000819050919050565b600061110b61110661110184610ece565b6110e6565b610ece565b9050919050565b600061111d826110f0565b9050919050565b600061112f82611112565b9050919050565b61113f81611124565b82525050565b600060208201905061115a6000830184611136565b92915050565b60006020828403121561117657611175610e61565b5b60006111848482850161107e565b91505092915050565b600081519050919050565b600082825260208201905092915050565b6000819050602082019050919050565b6111c281610e6b565b82525050565b60006111d483836111b9565b60208301905092915050565b6000602082019050919050565b60006111f88261118d565b6112028185611198565b935061120d836111a9565b8060005b8381101561123e57815161122588826111c8565b9750611230836111e0565b925050600181019050611211565b5085935050505092915050565b6000602082019050818103600083015261126581846111ed565b905092915050565b600081519050919050565b600082825260208201905092915050565b6000819050602082019050919050565b6112a281610eee565b82525050565b600082825260208201905092915050565b60006112c482610f0f565b6112ce81856112a8565b93506112de818560208601610f2b565b6112e781610f55565b840191505092915050565b60006101608301600083015161130b6000860182611299565b506020830151848203602086015261132382826112b9565b9150506040830151848203604086015261133d82826112b9565b915050606083015161135260608601826111b9565b50608083015161136560808601826111b9565b5060a083015161137860a08601826111b9565b5060c083015161138b60c08601826111b9565b5060e083015161139e60e08601826111b9565b506101008301516113b36101008601826111b9565b506101208301516113c86101208601826111b9565b506101408301516113dd6101408601826111b9565b508091505092915050565b60006113f483836112f2565b905092915050565b6000602082019050919050565b60006114148261126d565b61141e8185611278565b93508360208202850161143085611289565b8060005b8581101561146c578484038952815161144d85826113e8565b9450611458836113fc565b925060208a01995050600181019050611434565b50829750879550505050505092915050565b600060208201905081810360008301526114988184611409565b905092915050565b600080604083850312156114b7576114b6610e61565b5b60006114c58582860161107e565b92505060206114d685828601610e8c565b9150509250929050565b60006020820190506114f56000830184610f9f565b92915050565b600080fd5b600080fd5b7f4e487b7100000000000000000000000000000000000000000000000000000000600052604160045260246000fd5b61153d82610f55565b810181811067ffffffffffffffff8211171561155c5761155b611505565b5b80604052505050565b600061156f610e57565b905061157b8282611534565b919050565b600067ffffffffffffffff82111561159b5761159a611505565b5b6115a482610f55565b9050602081019050919050565b82818337600083830152505050565b60006115d36115ce84611580565b611565565b9050828152602081018484840111156115ef576115ee611500565b5b6115fa8482856115b1565b509392505050565b600082601f830112611617576116166114fb565b5b81356116278482602086016115c0565b91505092915050565b600080600080600080600060e0888a03121561164f5761164e610e61565b5b600088013567ffffffffffffffff81111561166d5761166c610e66565b5b6116798a828b01611602565b975050602061168a8a828b01610e8c565b965050604061169b8a828b01610e8c565b95505060606116ac8a828b01610e8c565b94505060806116bd8a828b01610e8c565b93505060a06116ce8a828b01610e8c565b92505060c06116df8a828b01610e8c565b91505092959891949750929550565b7f4e487b7100000000000000000000000000000000000000000000000000000000600052602260045260246000fd5b6000600282049050600182168061173557607f821691505b602082108103611748576117476116ee565b5b50919050565b7f4e487b7100000000000000000000000000000000000000000000000000000000600052603260045260246000fd5b7f4465616c206973207374696c6c206f70656e0000000000000000000000000000600082015250565b60006117b3601283610f1a565b91506117be8261177d565b602082019050919050565b600060208201905081810360008301526117e2816117a6565b9050919050565b7f496e73756666696369656e74206465616c20616d6f756e740000000000000000600082015250565b600061181f601883610f1a565b915061182a826117e9565b602082019050919050565b6000602082019050818103600083015261184e81611812565b9050919050565b600060208201905061186a6000830184610f00565b92915050565b600061188361187e84611580565b611565565b90508281526020810184848401111561189f5761189e611500565b5b6118aa848285610f2b565b509392505050565b600082601f8301126118c7576118c66114fb565b5b81516118d7848260208601611870565b91505092915050565b6000602082840312156118f6576118f5610e61565b5b600082015167ffffffffffffffff81111561191457611913610e66565b5b611920848285016118b2565b91505092915050565b7f4465616c6572206e6f7420726567697374657265642e00000000000000000000600082015250565b600061195f601683610f1a565b915061196a82611929565b602082019050919050565b6000602082019050818103600083015261198e81611952565b9050919050565b60008190508160005260206000209050919050565b60006020601f8301049050919050565b600082821b905092915050565b6000600883026119f77fffffffffffffffffffffffffffffffffffffffffffffffffffffffffffffffff826119ba565b611a0186836119ba565b95508019841693508086168417925050509392505050565b6000611a34611a2f611a2a84610e6b565b6110e6565b610e6b565b9050919050565b6000819050919050565b611a4e83611a19565b611a62611a5a82611a3b565b8484546119c7565b825550505050565b600090565b611a77611a6a565b611a82818484611a45565b505050565b5b81811015611aa657611a9b600082611a6f565b600181019050611a88565b5050565b601f821115611aeb57611abc81611995565b611ac5846119aa565b81016020851015611ad4578190505b611ae8611ae0856119aa565b830182611a87565b50505b505050565b600082821c905092915050565b6000611b0e60001984600802611af0565b1980831691505092915050565b6000611b278383611afd565b9150826002028217905092915050565b611b4082610f0f565b67ffffffffffffffff811115611b5957611b58611505565b5b611b63825461171d565b611b6e828285611aaa565b600060209050601f831160018114611ba15760008415611b8f578287015190505b611b998582611b1b565b865550611c01565b601f198416611baf86611995565b60005b82811015611bd757848901518255600182019150602085019450602081019050611bb2565b86831015611bf45784890151611bf0601f891682611afd565b8355505b6001600288020188555050505b505050505050565b7f4e487b7100000000000000000000000000000000000000000000000000000000600052601160045260246000fd5b6000611c4382610e6b565b9150611c4e83610e6b565b9250828203905081811115611c6657611c65611c09565b5b92915050565b6000610140820190508181036000830152611c87818d610f66565b90508181036020830152611c9b818c610f66565b9050611caa604083018b610f9f565b611cb7606083018a610f9f565b611cc46080830189610f9f565b611cd160a0830188610f9f565b611cde60c0830187610f9f565b611ceb60e0830186610f9f565b611cf9610100830185610f9f565b611d07610120830184610f9f565b9b9a505050505050505050505056fea2646970667358221220a409108682c0bda35efacf4f70eea927b44cd6324efeb41cd771cef859cc241864736f6c63430008180033",
  "linkReferences": {},
  "deployedLinkReferences": {}
}