{
  "_format": "hh-sol-artifact-1",
  "contractName": "Request",
  "sourceName": "contracts/Request.sol",
  "abi": [
    {
      "inputs": [
        {
          "internalType": "address",
          "name": "_verifiedContractor",
          "type": "address"
        },
        {
          "internalType": "address",
          "name": "_deal",
          "type": "address"
        }
      ],
      "stateMutability": "nonpayable",
      "type": "constructor"
    },
    {
      "anonymous": false,
      "inputs": [
        {
          "indexed": true,
          "internalType": "address",
          "name": "contractorAddress",
          "type": "address"
        },
        {
          "indexed": false,
          "internalType": "uint256",
          "name": "dealId",
          "type": "uint256"
        },
        {
          "indexed": false,
          "internalType": "uint256",
          "name": "suggestAmount",
          "type": "uint256"
        }
      ],
      "name": "InterestAdded",
      "type": "event"
    },
    {
      "inputs": [
        {
          "internalType": "uint256",
          "name": "_dealId",
          "type": "uint256"
        },
        {
          "internalType": "uint256",
          "name": "_suggestAmount",
          "type": "uint256"
        },
        {
          "internalType": "uint256",
          "name": "_contractCompleteDate",
          "type": "uint256"
        }
      ],
      "name": "addInterest",
      "outputs": [],
      "stateMutability": "nonpayable",
      "type": "function"
    },
    {
      "inputs": [],
      "name": "deal",
      "outputs": [
        {
          "internalType": "contract Deal",
          "name": "",
          "type": "address"
        }
      ],
      "stateMutability": "view",
      "type": "function"
    },
    {
      "inputs": [
        {
          "internalType": "uint256",
          "name": "",
          "type": "uint256"
        },
        {
          "internalType": "uint256",
          "name": "",
          "type": "uint256"
        }
      ],
      "name": "dealRequests",
      "outputs": [
        {
          "internalType": "address",
          "name": "",
          "type": "address"
        }
      ],
      "stateMutability": "view",
      "type": "function"
    },
    {
      "inputs": [
        {
          "internalType": "uint256",
          "name": "_dealId",
          "type": "uint256"
        }
      ],
      "name": "getContractorsByDeal",
      "outputs": [
        {
          "internalType": "address[]",
          "name": "",
          "type": "address[]"
        }
      ],
      "stateMutability": "view",
      "type": "function"
    },
    {
      "inputs": [
        {
          "internalType": "address",
          "name": "_contractor",
          "type": "address"
        }
      ],
      "name": "getInterests",
      "outputs": [
        {
          "components": [
            {
              "internalType": "address",
              "name": "contractorAddress",
              "type": "address"
            },
            {
              "internalType": "uint256",
              "name": "dealId",
              "type": "uint256"
            },
            {
              "internalType": "uint256",
              "name": "suggestAmount",
              "type": "uint256"
            },
            {
              "internalType": "uint256",
              "name": "contractCompleteDate",
              "type": "uint256"
            }
          ],
          "internalType": "struct Request.Interest[]",
          "name": "",
          "type": "tuple[]"
        }
      ],
      "stateMutability": "view",
      "type": "function"
    },
    {
      "inputs": [
        {
          "internalType": "uint256",
          "name": "_dealId",
          "type": "uint256"
        }
      ],
      "name": "getNumberByDeal",
      "outputs": [
        {
          "internalType": "uint256",
          "name": "",
          "type": "uint256"
        }
      ],
      "stateMutability": "view",
      "type": "function"
    },
    {
      "inputs": [
        {
          "internalType": "uint256",
          "name": "",
          "type": "uint256"
        },
        {
          "internalType": "address",
          "name": "",
          "type": "address"
        }
      ],
      "name": "hasRequested",
      "outputs": [
        {
          "internalType": "bool",
          "name": "",
          "type": "bool"
        }
      ],
      "stateMutability": "view",
      "type": "function"
    },
    {
      "inputs": [
        {
          "internalType": "address",
          "name": "",
          "type": "address"
        },
        {
          "internalType": "uint256",
          "name": "",
          "type": "uint256"
        }
      ],
      "name": "interests",
      "outputs": [
        {
          "internalType": "address",
          "name": "contractorAddress",
          "type": "address"
        },
        {
          "internalType": "uint256",
          "name": "dealId",
          "type": "uint256"
        },
        {
          "internalType": "uint256",
          "name": "suggestAmount",
          "type": "uint256"
        },
        {
          "internalType": "uint256",
          "name": "contractCompleteDate",
          "type": "uint256"
        }
      ],
      "stateMutability": "view",
      "type": "function"
    },
    {
      "inputs": [],
      "name": "verifiedContractor",
      "outputs": [
        {
          "internalType": "contract VerifiedContractor",
          "name": "",
          "type": "address"
        }
      ],
      "stateMutability": "view",
      "type": "function"
    }
  ],
  "bytecode": "0x60806040523480156200001157600080fd5b50604051620016fa380380620016fa83398181016040528101906200003791906200012b565b81600360006101000a81548173ffffffffffffffffffffffffffffffffffffffff021916908373ffffffffffffffffffffffffffffffffffffffff16021790555080600460006101000a81548173ffffffffffffffffffffffffffffffffffffffff021916908373ffffffffffffffffffffffffffffffffffffffff160217905550505062000172565b600080fd5b600073ffffffffffffffffffffffffffffffffffffffff82169050919050565b6000620000f382620000c6565b9050919050565b6200010581620000e6565b81146200011157600080fd5b50565b6000815190506200012581620000fa565b92915050565b60008060408385031215620001455762000144620000c1565b5b6000620001558582860162000114565b9250506020620001688582860162000114565b9150509250929050565b61157880620001826000396000f3fe608060405234801561001057600080fd5b50600436106100935760003560e01c8063731c64c011610066578063731c64c0146101205780637b6e3cee14610153578063a79326ee14610183578063f4961f8e146101b3578063f8cb8b0b146101e357610093565b80630284035c1461009857806313b4c5e7146100b4578063553df021146100d257806364b0412e146100f0575b600080fd5b6100b260048036038101906100ad9190610bc3565b610213565b005b6100bc6106d4565b6040516100c99190610c95565b60405180910390f35b6100da6106fa565b6040516100e79190610cd1565b60405180910390f35b61010a60048036038101906101059190610cec565b610720565b6040516101179190610d4d565b60405180910390f35b61013a60048036038101906101359190610d94565b61076e565b60405161014a9493929190610de3565b60405180910390f35b61016d60048036038101906101689190610e28565b6107db565b60405161017a9190610e83565b60405180910390f35b61019d60048036038101906101989190610e9e565b61080a565b6040516101aa9190610fed565b60405180910390f35b6101cd60048036038101906101c8919061100f565b61091b565b6040516101da91906110eb565b60405180910390f35b6101fd60048036038101906101f8919061100f565b610a8e565b60405161020a919061110d565b60405180910390f35b6000600360009054906101000a900473ffffffffffffffffffffffffffffffffffffffff1673ffffffffffffffffffffffffffffffffffffffff16637c829c0f336040518263ffffffff1660e01b81526004016102709190610d4d565b600060405180830381865afa15801561028d573d6000803e3d6000fd5b505050506040513d6000823e3d601f19601f820116820180604052508101906102b691906112b3565b50505050505090503373ffffffffffffffffffffffffffffffffffffffff168173ffffffffffffffffffffffffffffffffffffffff161461032c576040517f08c379a0000000000000000000000000000000000000000000000000000000008152600401610323906113ce565b60405180910390fd5b600460009054906101000a900473ffffffffffffffffffffffffffffffffffffffff1673ffffffffffffffffffffffffffffffffffffffff1663eadb3c9c6040518163ffffffff1660e01b8152600401602060405180830381865afa158015610399573d6000803e3d6000fd5b505050506040513d601f19601f820116820180604052508101906103bd91906113ee565b84106103fe576040517f08c379a00000000000000000000000000000000000000000000000000000000081526004016103f590611467565b60405180910390fd5b6002600085815260200190815260200160002060003373ffffffffffffffffffffffffffffffffffffffff1673ffffffffffffffffffffffffffffffffffffffff16815260200190815260200160002060009054906101000a900460ff161561049c576040517f08c379a0000000000000000000000000000000000000000000000000000000008152600401610493906114f9565b60405180910390fd5b6000803373ffffffffffffffffffffffffffffffffffffffff1673ffffffffffffffffffffffffffffffffffffffff16815260200190815260200160002060405180608001604052803373ffffffffffffffffffffffffffffffffffffffff16815260200186815260200185815260200184815250908060018154018082558091505060019003906000526020600020906004020160009091909190915060008201518160000160006101000a81548173ffffffffffffffffffffffffffffffffffffffff021916908373ffffffffffffffffffffffffffffffffffffffff160217905550602082015181600101556040820151816002015560608201518160030155505060016000858152602001908152602001600020339080600181540180825580915050600190039060005260206000200160009091909190916101000a81548173ffffffffffffffffffffffffffffffffffffffff021916908373ffffffffffffffffffffffffffffffffffffffff16021790555060016002600086815260200190815260200160002060003373ffffffffffffffffffffffffffffffffffffffff1673ffffffffffffffffffffffffffffffffffffffff16815260200190815260200160002060006101000a81548160ff0219169083151502179055503373ffffffffffffffffffffffffffffffffffffffff167fb88f8383882f54cb574dff325b85c42a309d57614889e6cb95b5e8589fbfeea485856040516106c6929190611519565b60405180910390a250505050565b600360009054906101000a900473ffffffffffffffffffffffffffffffffffffffff1681565b600460009054906101000a900473ffffffffffffffffffffffffffffffffffffffff1681565b6001602052816000526040600020818154811061073c57600080fd5b906000526020600020016000915091509054906101000a900473ffffffffffffffffffffffffffffffffffffffff1681565b6000602052816000526040600020818154811061078a57600080fd5b9060005260206000209060040201600091509150508060000160009054906101000a900473ffffffffffffffffffffffffffffffffffffffff16908060010154908060020154908060030154905084565b60026020528160005260406000206020528060005260406000206000915091509054906101000a900460ff1681565b60606000808373ffffffffffffffffffffffffffffffffffffffff1673ffffffffffffffffffffffffffffffffffffffff168152602001908152602001600020805480602002602001604051908101604052809291908181526020016000905b8282101561091057838290600052602060002090600402016040518060800160405290816000820160009054906101000a900473ffffffffffffffffffffffffffffffffffffffff1673ffffffffffffffffffffffffffffffffffffffff1673ffffffffffffffffffffffffffffffffffffffff16815260200160018201548152602001600282015481526020016003820154815250508152602001906001019061086a565b505050509050919050565b6060600460009054906101000a900473ffffffffffffffffffffffffffffffffffffffff1673ffffffffffffffffffffffffffffffffffffffff1663eadb3c9c6040518163ffffffff1660e01b8152600401602060405180830381865afa15801561098a573d6000803e3d6000fd5b505050506040513d601f19601f820116820180604052508101906109ae91906113ee565b82106109ef576040517f08c379a00000000000000000000000000000000000000000000000000000000081526004016109e690611467565b60405180910390fd5b60016000838152602001908152602001600020805480602002602001604051908101604052809291908181526020018280548015610a8257602002820191906000526020600020905b8160009054906101000a900473ffffffffffffffffffffffffffffffffffffffff1673ffffffffffffffffffffffffffffffffffffffff1681526020019060010190808311610a38575b50505050509050919050565b6000600460009054906101000a900473ffffffffffffffffffffffffffffffffffffffff1673ffffffffffffffffffffffffffffffffffffffff1663eadb3c9c6040518163ffffffff1660e01b8152600401602060405180830381865afa158015610afd573d6000803e3d6000fd5b505050506040513d601f19601f82011682018060405250810190610b2191906113ee565b8210610b62576040517f08c379a0000000000000000000000000000000000000000000000000000000008152600401610b5990611467565b60405180910390fd5b6000610b6d8361091b565b90508051915050919050565b6000604051905090565b600080fd5b600080fd5b6000819050919050565b610ba081610b8d565b8114610bab57600080fd5b50565b600081359050610bbd81610b97565b92915050565b600080600060608486031215610bdc57610bdb610b83565b5b6000610bea86828701610bae565b9350506020610bfb86828701610bae565b9250506040610c0c86828701610bae565b9150509250925092565b600073ffffffffffffffffffffffffffffffffffffffff82169050919050565b6000819050919050565b6000610c5b610c56610c5184610c16565b610c36565b610c16565b9050919050565b6000610c6d82610c40565b9050919050565b6000610c7f82610c62565b9050919050565b610c8f81610c74565b82525050565b6000602082019050610caa6000830184610c86565b92915050565b6000610cbb82610c62565b9050919050565b610ccb81610cb0565b82525050565b6000602082019050610ce66000830184610cc2565b92915050565b60008060408385031215610d0357610d02610b83565b5b6000610d1185828601610bae565b9250506020610d2285828601610bae565b9150509250929050565b6000610d3782610c16565b9050919050565b610d4781610d2c565b82525050565b6000602082019050610d626000830184610d3e565b92915050565b610d7181610d2c565b8114610d7c57600080fd5b50565b600081359050610d8e81610d68565b92915050565b60008060408385031215610dab57610daa610b83565b5b6000610db985828601610d7f565b9250506020610dca85828601610bae565b9150509250929050565b610ddd81610b8d565b82525050565b6000608082019050610df86000830187610d3e565b610e056020830186610dd4565b610e126040830185610dd4565b610e1f6060830184610dd4565b95945050505050565b60008060408385031215610e3f57610e3e610b83565b5b6000610e4d85828601610bae565b9250506020610e5e85828601610d7f565b9150509250929050565b60008115159050919050565b610e7d81610e68565b82525050565b6000602082019050610e986000830184610e74565b92915050565b600060208284031215610eb457610eb3610b83565b5b6000610ec284828501610d7f565b91505092915050565b600081519050919050565b600082825260208201905092915050565b6000819050602082019050919050565b610f0081610d2c565b82525050565b610f0f81610b8d565b82525050565b608082016000820151610f2b6000850182610ef7565b506020820151610f3e6020850182610f06565b506040820151610f516040850182610f06565b506060820151610f646060850182610f06565b50505050565b6000610f768383610f15565b60808301905092915050565b6000602082019050919050565b6000610f9a82610ecb565b610fa48185610ed6565b9350610faf83610ee7565b8060005b83811015610fe0578151610fc78882610f6a565b9750610fd283610f82565b925050600181019050610fb3565b5085935050505092915050565b600060208201905081810360008301526110078184610f8f565b905092915050565b60006020828403121561102557611024610b83565b5b600061103384828501610bae565b91505092915050565b600081519050919050565b600082825260208201905092915050565b6000819050602082019050919050565b60006110748383610ef7565b60208301905092915050565b6000602082019050919050565b60006110988261103c565b6110a28185611047565b93506110ad83611058565b8060005b838110156110de5781516110c58882611068565b97506110d083611080565b9250506001810190506110b1565b5085935050505092915050565b60006020820190508181036000830152611105818461108d565b905092915050565b60006020820190506111226000830184610dd4565b92915050565b60008151905061113781610d68565b92915050565b600080fd5b600080fd5b6000601f19601f8301169050919050565b7f4e487b7100000000000000000000000000000000000000000000000000000000600052604160045260246000fd5b61119082611147565b810181811067ffffffffffffffff821117156111af576111ae611158565b5b80604052505050565b60006111c2610b79565b90506111ce8282611187565b919050565b600067ffffffffffffffff8211156111ee576111ed611158565b5b6111f782611147565b9050602081019050919050565b60005b83811015611222578082015181840152602081019050611207565b60008484015250505050565b600061124161123c846111d3565b6111b8565b90508281526020810184848401111561125d5761125c611142565b5b611268848285611204565b509392505050565b600082601f8301126112855761128461113d565b5b815161129584826020860161122e565b91505092915050565b6000815190506112ad81610b97565b92915050565b600080600080600080600060e0888a0312156112d2576112d1610b83565b5b60006112e08a828b01611128565b975050602088015167ffffffffffffffff81111561130157611300610b88565b5b61130d8a828b01611270565b965050604061131e8a828b0161129e565b955050606061132f8a828b0161129e565b94505060806113408a828b0161129e565b93505060a06113518a828b0161129e565b92505060c06113628a828b0161129e565b91505092959891949750929550565b600082825260208201905092915050565b7f436f6e74726163746f72206e6f74207665726966696564000000000000000000600082015250565b60006113b8601783611371565b91506113c382611382565b602082019050919050565b600060208201905081810360008301526113e7816113ab565b9050919050565b60006020828403121561140457611403610b83565b5b60006114128482850161129e565b91505092915050565b7f4465616c20646f6573206e6f7420657869737400000000000000000000000000600082015250565b6000611451601383611371565b915061145c8261141b565b602082019050919050565b6000602082019050818103600083015261148081611444565b9050919050565b7f496e74657265737420616c726561647920616464656420666f7220746869732060008201527f6465616c00000000000000000000000000000000000000000000000000000000602082015250565b60006114e3602483611371565b91506114ee82611487565b604082019050919050565b60006020820190508181036000830152611512816114d6565b9050919050565b600060408201905061152e6000830185610dd4565b61153b6020830184610dd4565b939250505056fea2646970667358221220b952c18597c97a78ea647cb45a93fdcd13628f511612c6dfb02577f02b6ba81b64736f6c63430008180033",
  "linkReferences": {},
  "deployedLinkReferences": {}
}