{
  "_format": "hh-sol-artifact-1",
  "contractName": "Sequence",
  "sourceName": "contracts/Sequence.sol",
  "abi": [
    {
      "inputs": [
        {
          "internalType": "address",
          "name": "_Deal",
          "type": "address"
        },
        {
          "internalType": "address",
          "name": "_Request",
          "type": "address"
        },
        {
          "internalType": "address",
          "name": "_VerifiedContractor",
          "type": "address"
        }
      ],
      "stateMutability": "nonpayable",
      "type": "constructor"
    },
    {
      "inputs": [],
      "name": "deal",
      "outputs": [
        {
          "internalType": "contract Deal",
          "name": "",
          "type": "address"
        }
      ],
      "stateMutability": "view",
      "type": "function"
    },
    {
      "inputs": [
        {
          "internalType": "address",
          "name": "contractor",
          "type": "address"
        },
        {
          "internalType": "uint256",
          "name": "needFinancialCapabilities",
          "type": "uint256"
        },
        {
          "internalType": "uint256",
          "name": "needTechCapabilities",
          "type": "uint256"
        },
        {
          "internalType": "uint256",
          "name": "needExperience",
          "type": "uint256"
        },
        {
          "internalType": "uint256",
          "name": "needPerformance",
          "type": "uint256"
        },
        {
          "internalType": "uint256",
          "name": "needHealthAndSafety",
          "type": "uint256"
        }
      ],
      "name": "getContractorPoints",
      "outputs": [
        {
          "components": [
            {
              "internalType": "address",
              "name": "contractor",
              "type": "address"
            },
            {
              "internalType": "string",
              "name": "name",
              "type": "string"
            },
            {
              "internalType": "uint256",
              "name": "points",
              "type": "uint256"
            }
          ],
          "internalType": "struct Sequence.Point",
          "name": "",
          "type": "tuple"
        }
      ],
      "stateMutability": "view",
      "type": "function"
    },
    {
      "inputs": [
        {
          "internalType": "uint256",
          "name": "_dealId",
          "type": "uint256"
        }
      ],
      "name": "getSequence",
      "outputs": [
        {
          "components": [
            {
              "internalType": "address",
              "name": "contractor",
              "type": "address"
            },
            {
              "internalType": "string",
              "name": "name",
              "type": "string"
            },
            {
              "internalType": "uint256",
              "name": "points",
              "type": "uint256"
            }
          ],
          "internalType": "struct Sequence.Point[]",
          "name": "",
          "type": "tuple[]"
        }
      ],
      "stateMutability": "view",
      "type": "function"
    },
    {
      "inputs": [
        {
          "internalType": "uint256",
          "name": "_dealId",
          "type": "uint256"
        }
      ],
      "name": "getSequenceCount",
      "outputs": [
        {
          "internalType": "uint256",
          "name": "",
          "type": "uint256"
        }
      ],
      "stateMutability": "view",
      "type": "function"
    },
    {
      "inputs": [],
      "name": "request",
      "outputs": [
        {
          "internalType": "contract Request",
          "name": "",
          "type": "address"
        }
      ],
      "stateMutability": "view",
      "type": "function"
    },
    {
      "inputs": [],
      "name": "verifiedContractor",
      "outputs": [
        {
          "internalType": "contract VerifiedContractor",
          "name": "",
          "type": "address"
        }
      ],
      "stateMutability": "view",
      "type": "function"
    }
  ],
  "bytecode": "0x60806040523480156200001157600080fd5b5060405162001d3c38038062001d3c83398181016040528101906200003791906200016c565b826000806101000a81548173ffffffffffffffffffffffffffffffffffffffff021916908373ffffffffffffffffffffffffffffffffffffffff16021790555081600160006101000a81548173ffffffffffffffffffffffffffffffffffffffff021916908373ffffffffffffffffffffffffffffffffffffffff16021790555080600260006101000a81548173ffffffffffffffffffffffffffffffffffffffff021916908373ffffffffffffffffffffffffffffffffffffffff160217905550505050620001c8565b600080fd5b600073ffffffffffffffffffffffffffffffffffffffff82169050919050565b6000620001348262000107565b9050919050565b620001468162000127565b81146200015257600080fd5b50565b60008151905062000166816200013b565b92915050565b60008060006060848603121562000188576200018762000102565b5b6000620001988682870162000155565b9350506020620001ab8682870162000155565b9250506040620001be8682870162000155565b9150509250925092565b611b6480620001d86000396000f3fe608060405234801561001057600080fd5b50600436106100625760003560e01c806313b4c5e7146100675780631597148a14610085578063338cdca1146100b5578063553df021146100d357806386d80ccc146100f1578063925b1c8814610121575b600080fd5b61006f610151565b60405161007c9190610ee3565b60405180910390f35b61009f600480360381019061009a9190610f48565b610177565b6040516100ac9190611147565b60405180910390f35b6100bd61082b565b6040516100ca919061118a565b60405180910390f35b6100db610851565b6040516100e891906111c6565b60405180910390f35b61010b6004803603810190610106919061120d565b610875565b60405161011891906112ea565b60405180910390f35b61013b60048036038101906101369190610f48565b61098e565b604051610148919061131b565b60405180910390f35b600260009054906101000a900473ffffffffffffffffffffffffffffffffffffffff1681565b606060008054906101000a900473ffffffffffffffffffffffffffffffffffffffff1673ffffffffffffffffffffffffffffffffffffffff1663eadb3c9c6040518163ffffffff1660e01b8152600401602060405180830381865afa1580156101e4573d6000803e3d6000fd5b505050506040513d601f19601f82011682018060405250810190610208919061134b565b8210610249576040517f08c379a0000000000000000000000000000000000000000000000000000000008152600401610240906113d5565b60405180910390fd5b60008060008060008060008054906101000a900473ffffffffffffffffffffffffffffffffffffffff1673ffffffffffffffffffffffffffffffffffffffff1663dbc23cf3896040518263ffffffff1660e01b81526004016102ab919061131b565b600060405180830381865afa1580156102c8573d6000803e3d6000fd5b505050506040513d6000823e3d601f19601f820116820180604052508101906102f19190611530565b50509850985098509850985098505050506000600160009054906101000a900473ffffffffffffffffffffffffffffffffffffffff1673ffffffffffffffffffffffffffffffffffffffff1663f8cb8b0b8a6040518263ffffffff1660e01b815260040161035f919061131b565b602060405180830381865afa15801561037c573d6000803e3d6000fd5b505050506040513d601f19601f820116820180604052508101906103a0919061134b565b90506000600160009054906101000a900473ffffffffffffffffffffffffffffffffffffffff1673ffffffffffffffffffffffffffffffffffffffff1663f4961f8e8b6040518263ffffffff1660e01b81526004016103ff919061131b565b600060405180830381865afa15801561041c573d6000803e3d6000fd5b505050506040513d6000823e3d601f19601f820116820180604052508101906104459190611724565b905060008267ffffffffffffffff81111561046357610462611414565b5b60405190808252806020026020018201604052801561049c57816020015b610489610e2d565b8152602001906001900390816104815790505b5090506000805b84811015610637576000600160009054906101000a900473ffffffffffffffffffffffffffffffffffffffff1673ffffffffffffffffffffffffffffffffffffffff1663a79326ee8684815181106104fe576104fd61176d565b5b60200260200101516040518263ffffffff1660e01b815260040161052291906117ab565b600060405180830381865afa15801561053f573d6000803e3d6000fd5b505050506040513d6000823e3d601f19601f820116820180604052508101906105689190611906565b905060005b8151811015610628578e82828151811061058a5761058961176d565b5b6020026020010151602001511480156105c157508c8282815181106105b2576105b161176d565b5b60200260200101516040015111155b1561061b576105ee8684815181106105dc576105db61176d565b5b60200260200101518d8d8d8d8d610875565b8585815181106106015761060061176d565b5b602002602001018190525083806106179061197e565b9450505b808060010191505061056d565b505080806001019150506104a3565b5060008167ffffffffffffffff81111561065457610653611414565b5b60405190808252806020026020018201604052801561068d57816020015b61067a610e2d565b8152602001906001900390816106725790505b50905060005b828110156106e1578381815181106106ae576106ad61176d565b5b60200260200101518282815181106106c9576106c861176d565b5b60200260200101819052508080600101915050610693565b5060005b6001836106f291906119c6565b8110156108175760005b6001828561070a91906119c6565b61071491906119c6565b811015610809578260018261072991906119fa565b8151811061073a5761073961176d565b5b6020026020010151604001518382815181106107595761075861176d565b5b60200260200101516040015110156107fc5760008382815181106107805761077f61176d565b5b602002602001015190508360018361079891906119fa565b815181106107a9576107a861176d565b5b60200260200101518483815181106107c4576107c361176d565b5b602002602001018190525080846001846107de91906119fa565b815181106107ef576107ee61176d565b5b6020026020010181905250505b80806001019150506106fc565b5080806001019150506106e5565b50809b505050505050505050505050919050565b600160009054906101000a900473ffffffffffffffffffffffffffffffffffffffff1681565b60008054906101000a900473ffffffffffffffffffffffffffffffffffffffff1681565b61087d610e2d565b600080600080600080600260009054906101000a900473ffffffffffffffffffffffffffffffffffffffff1673ffffffffffffffffffffffffffffffffffffffff16637c829c0f8e6040518263ffffffff1660e01b81526004016108e191906117ab565b600060405180830381865afa1580156108fe573d6000803e3d6000fd5b505050506040513d6000823e3d601f19601f820116820180604052508101906109279190611a2e565b9650965096509650965096505060006109488d8d8d8d8d8b8b8b8b8b610db7565b905060405180606001604052808f73ffffffffffffffffffffffffffffffffffffffff168152602001888152602001828152509750505050505050509695505050505050565b60008060009054906101000a900473ffffffffffffffffffffffffffffffffffffffff1673ffffffffffffffffffffffffffffffffffffffff1663eadb3c9c6040518163ffffffff1660e01b8152600401602060405180830381865afa1580156109fc573d6000803e3d6000fd5b505050506040513d601f19601f82011682018060405250810190610a20919061134b565b8210610a61576040517f08c379a0000000000000000000000000000000000000000000000000000000008152600401610a58906113d5565b60405180910390fd5b60008060009054906101000a900473ffffffffffffffffffffffffffffffffffffffff1673ffffffffffffffffffffffffffffffffffffffff1663dbc23cf3846040518263ffffffff1660e01b8152600401610abd919061131b565b600060405180830381865afa158015610ada573d6000803e3d6000fd5b505050506040513d6000823e3d601f19601f82011682018060405250810190610b039190611530565b5050505050505093505050506000600160009054906101000a900473ffffffffffffffffffffffffffffffffffffffff1673ffffffffffffffffffffffffffffffffffffffff1663f8cb8b0b856040518263ffffffff1660e01b8152600401610b6c919061131b565b602060405180830381865afa158015610b89573d6000803e3d6000fd5b505050506040513d601f19601f82011682018060405250810190610bad919061134b565b90506000600160009054906101000a900473ffffffffffffffffffffffffffffffffffffffff1673ffffffffffffffffffffffffffffffffffffffff1663f4961f8e866040518263ffffffff1660e01b8152600401610c0c919061131b565b600060405180830381865afa158015610c29573d6000803e3d6000fd5b505050506040513d6000823e3d601f19601f82011682018060405250810190610c529190611724565b90506000805b83811015610daa576000600160009054906101000a900473ffffffffffffffffffffffffffffffffffffffff1673ffffffffffffffffffffffffffffffffffffffff1663a79326ee858481518110610cb357610cb261176d565b5b60200260200101516040518263ffffffff1660e01b8152600401610cd791906117ab565b600060405180830381865afa158015610cf4573d6000803e3d6000fd5b505050506040513d6000823e3d601f19601f82011682018060405250810190610d1d9190611906565b905060005b8151811015610d9b5788828281518110610d3f57610d3e61176d565b5b602002602001015160200151148015610d76575086828281518110610d6757610d6661176d565b5b60200260200101516040015111155b15610d8e578380610d869061197e565b945050610d9b565b8080600101915050610d22565b50508080600101915050610c58565b5080945050505050919050565b60008187610dc59190611aec565b8389610dd19190611aec565b858b610ddd9190611aec565b878d610de99190611aec565b898f610df59190611aec565b610dff91906119fa565b610e0991906119fa565b610e1391906119fa565b610e1d91906119fa565b90509a9950505050505050505050565b6040518060600160405280600073ffffffffffffffffffffffffffffffffffffffff16815260200160608152602001600081525090565b600073ffffffffffffffffffffffffffffffffffffffff82169050919050565b6000819050919050565b6000610ea9610ea4610e9f84610e64565b610e84565b610e64565b9050919050565b6000610ebb82610e8e565b9050919050565b6000610ecd82610eb0565b9050919050565b610edd81610ec2565b82525050565b6000602082019050610ef86000830184610ed4565b92915050565b6000604051905090565b600080fd5b600080fd5b6000819050919050565b610f2581610f12565b8114610f3057600080fd5b50565b600081359050610f4281610f1c565b92915050565b600060208284031215610f5e57610f5d610f08565b5b6000610f6c84828501610f33565b91505092915050565b600081519050919050565b600082825260208201905092915050565b6000819050602082019050919050565b6000610fac82610e64565b9050919050565b610fbc81610fa1565b82525050565b600081519050919050565b600082825260208201905092915050565b60005b83811015610ffc578082015181840152602081019050610fe1565b60008484015250505050565b6000601f19601f8301169050919050565b600061102482610fc2565b61102e8185610fcd565b935061103e818560208601610fde565b61104781611008565b840191505092915050565b61105b81610f12565b82525050565b60006060830160008301516110796000860182610fb3565b50602083015184820360208601526110918282611019565b91505060408301516110a66040860182611052565b508091505092915050565b60006110bd8383611061565b905092915050565b6000602082019050919050565b60006110dd82610f75565b6110e78185610f80565b9350836020820285016110f985610f91565b8060005b85811015611135578484038952815161111685826110b1565b9450611121836110c5565b925060208a019950506001810190506110fd565b50829750879550505050505092915050565b6000602082019050818103600083015261116181846110d2565b905092915050565b600061117482610eb0565b9050919050565b61118481611169565b82525050565b600060208201905061119f600083018461117b565b92915050565b60006111b082610eb0565b9050919050565b6111c0816111a5565b82525050565b60006020820190506111db60008301846111b7565b92915050565b6111ea81610fa1565b81146111f557600080fd5b50565b600081359050611207816111e1565b92915050565b60008060008060008060c0878903121561122a57611229610f08565b5b600061123889828a016111f8565b965050602061124989828a01610f33565b955050604061125a89828a01610f33565b945050606061126b89828a01610f33565b935050608061127c89828a01610f33565b92505060a061128d89828a01610f33565b9150509295509295509295565b60006060830160008301516112b26000860182610fb3565b50602083015184820360208601526112ca8282611019565b91505060408301516112df6040860182611052565b508091505092915050565b60006020820190508181036000830152611304818461129a565b905092915050565b61131581610f12565b82525050565b6000602082019050611330600083018461130c565b92915050565b60008151905061134581610f1c565b92915050565b60006020828403121561136157611360610f08565b5b600061136f84828501611336565b91505092915050565b600082825260208201905092915050565b7f496e76616c6964206465616c2049440000000000000000000000000000000000600082015250565b60006113bf600f83611378565b91506113ca82611389565b602082019050919050565b600060208201905081810360008301526113ee816113b2565b9050919050565b600081519050611404816111e1565b92915050565b600080fd5b600080fd5b7f4e487b7100000000000000000000000000000000000000000000000000000000600052604160045260246000fd5b61144c82611008565b810181811067ffffffffffffffff8211171561146b5761146a611414565b5b80604052505050565b600061147e610efe565b905061148a8282611443565b919050565b600067ffffffffffffffff8211156114aa576114a9611414565b5b6114b382611008565b9050602081019050919050565b60006114d36114ce8461148f565b611474565b9050828152602081018484840111156114ef576114ee61140f565b5b6114fa848285610fde565b509392505050565b600082601f8301126115175761151661140a565b5b81516115278482602086016114c0565b91505092915050565b60008060008060008060008060008060006101608c8e03121561155657611555610f08565b5b60006115648e828f016113f5565b9b505060208c015167ffffffffffffffff81111561158557611584610f0d565b5b6115918e828f01611502565b9a505060408c015167ffffffffffffffff8111156115b2576115b1610f0d565b5b6115be8e828f01611502565b99505060606115cf8e828f01611336565b98505060806115e08e828f01611336565b97505060a06115f18e828f01611336565b96505060c06116028e828f01611336565b95505060e06116138e828f01611336565b9450506101006116258e828f01611336565b9350506101206116378e828f01611336565b9250506101406116498e828f01611336565b9150509295989b509295989b9093969950565b600067ffffffffffffffff82111561167757611676611414565b5b602082029050602081019050919050565b600080fd5b60006116a061169b8461165c565b611474565b905080838252602082019050602084028301858111156116c3576116c2611688565b5b835b818110156116ec57806116d888826113f5565b8452602084019350506020810190506116c5565b5050509392505050565b600082601f83011261170b5761170a61140a565b5b815161171b84826020860161168d565b91505092915050565b60006020828403121561173a57611739610f08565b5b600082015167ffffffffffffffff81111561175857611757610f0d565b5b611764848285016116f6565b91505092915050565b7f4e487b7100000000000000000000000000000000000000000000000000000000600052603260045260246000fd5b6117a581610fa1565b82525050565b60006020820190506117c0600083018461179c565b92915050565b600067ffffffffffffffff8211156117e1576117e0611414565b5b602082029050602081019050919050565b600080fd5b60006080828403121561180d5761180c6117f2565b5b6118176080611474565b90506000611827848285016113f5565b600083015250602061183b84828501611336565b602083015250604061184f84828501611336565b604083015250606061186384828501611336565b60608301525092915050565b600061188261187d846117c6565b611474565b905080838252602082019050608084028301858111156118a5576118a4611688565b5b835b818110156118ce57806118ba88826117f7565b8452602084019350506080810190506118a7565b5050509392505050565b600082601f8301126118ed576118ec61140a565b5b81516118fd84826020860161186f565b91505092915050565b60006020828403121561191c5761191b610f08565b5b600082015167ffffffffffffffff81111561193a57611939610f0d565b5b611946848285016118d8565b91505092915050565b7f4e487b7100000000000000000000000000000000000000000000000000000000600052601160045260246000fd5b600061198982610f12565b91507fffffffffffffffffffffffffffffffffffffffffffffffffffffffffffffffff82036119bb576119ba61194f565b5b600182019050919050565b60006119d182610f12565b91506119dc83610f12565b92508282039050818111156119f4576119f361194f565b5b92915050565b6000611a0582610f12565b9150611a1083610f12565b9250828201905080821115611a2857611a2761194f565b5b92915050565b600080600080600080600060e0888a031215611a4d57611a4c610f08565b5b6000611a5b8a828b016113f5565b975050602088015167ffffffffffffffff811115611a7c57611a7b610f0d565b5b611a888a828b01611502565b9650506040611a998a828b01611336565b9550506060611aaa8a828b01611336565b9450506080611abb8a828b01611336565b93505060a0611acc8a828b01611336565b92505060c0611add8a828b01611336565b91505092959891949750929550565b6000611af782610f12565b9150611b0283610f12565b9250828202611b1081610f12565b91508282048414831517611b2757611b2661194f565b5b509291505056fea26469706673582212209adf69ab5bb7e78b9628a4f570842c1ccddb6df2cf092951f2ddc5c049f3efa864736f6c63430008180033",
  "linkReferences": {},
  "deployedLinkReferences": {}
}