{
  "_format": "hh-sol-artifact-1",
  "contractName": "VerifiedContractor",
  "sourceName": "contracts/VerifiedContractor.sol",
  "abi": [
    {
      "inputs": [
        {
          "internalType": "address",
          "name": "_contractorAddress",
          "type": "address"
        }
      ],
      "stateMutability": "nonpayable",
      "type": "constructor"
    },
    {
      "anonymous": false,
      "inputs": [
        {
          "indexed": true,
          "internalType": "address",
          "name": "addressContractor",
          "type": "address"
        },
        {
          "indexed": false,
          "internalType": "string",
          "name": "name",
          "type": "string"
        },
        {
          "indexed": false,
          "internalType": "uint256",
          "name": "rateFinancialCapabilities",
          "type": "uint256"
        },
        {
          "indexed": false,
          "internalType": "uint256",
          "name": "rateTechCapabilities",
          "type": "uint256"
        },
        {
          "indexed": false,
          "internalType": "uint256",
          "name": "rateExperience",
          "type": "uint256"
        },
        {
          "indexed": false,
          "internalType": "uint256",
          "name": "ratePerformance",
          "type": "uint256"
        },
        {
          "indexed": false,
          "internalType": "uint256",
          "name": "rateHealthAndSafety",
          "type": "uint256"
        }
      ],
      "name": "contractorUpdated",
      "type": "event"
    },
    {
      "inputs": [],
      "name": "contractor",
      "outputs": [
        {
          "internalType": "contract Contractor",
          "name": "",
          "type": "address"
        }
      ],
      "stateMutability": "view",
      "type": "function"
    },
    {
      "inputs": [
        {
          "internalType": "address",
          "name": "_contractorAddress",
          "type": "address"
        }
      ],
      "name": "getVerifiedContractor",
      "outputs": [
        {
          "internalType": "address",
          "name": "contractorAddress",
          "type": "address"
        },
        {
          "internalType": "string",
          "name": "name",
          "type": "string"
        },
        {
          "internalType": "uint256",
          "name": "rateFinancialCapabilities",
          "type": "uint256"
        },
        {
          "internalType": "uint256",
          "name": "rateTechCapabilities",
          "type": "uint256"
        },
        {
          "internalType": "uint256",
          "name": "rateExperience",
          "type": "uint256"
        },
        {
          "internalType": "uint256",
          "name": "ratePerformance",
          "type": "uint256"
        },
        {
          "internalType": "uint256",
          "name": "rateHealthAndSafety",
          "type": "uint256"
        }
      ],
      "stateMutability": "view",
      "type": "function"
    },
    {
      "inputs": [
        {
          "internalType": "uint256",
          "name": "index",
          "type": "uint256"
        },
        {
          "internalType": "uint256",
          "name": "rateFinancialCapabilities",
          "type": "uint256"
        },
        {
          "internalType": "uint256",
          "name": "rateTechCapabilities",
          "type": "uint256"
        },
        {
          "internalType": "uint256",
          "name": "rateExperience",
          "type": "uint256"
        },
        {
          "internalType": "uint256",
          "name": "ratePerformance",
          "type": "uint256"
        },
        {
          "internalType": "uint256",
          "name": "rateHealthAndSafety",
          "type": "uint256"
        }
      ],
      "name": "updateContract",
      "outputs": [],
      "stateMutability": "nonpayable",
      "type": "function"
    },
    {
      "inputs": [
        {
          "internalType": "address",
          "name": "",
          "type": "address"
        }
      ],
      "name": "verifiedContractors",
      "outputs": [
        {
          "internalType": "address",
          "name": "addressContractor",
          "type": "address"
        },
        {
          "internalType": "string",
          "name": "name",
          "type": "string"
        },
        {
          "internalType": "uint256",
          "name": "rateFinancialCapabilities",
          "type": "uint256"
        },
        {
          "internalType": "uint256",
          "name": "rateTechCapabilities",
          "type": "uint256"
        },
        {
          "internalType": "uint256",
          "name": "rateExperience",
          "type": "uint256"
        },
        {
          "internalType": "uint256",
          "name": "ratePerformance",
          "type": "uint256"
        },
        {
          "internalType": "uint256",
          "name": "rateHealthAndSafety",
          "type": "uint256"
        }
      ],
      "stateMutability": "view",
      "type": "function"
    }
  ],
  "bytecode": "0x60806040523480156200001157600080fd5b5060405162001197380380620011978339818101604052810190620000379190620000e9565b80600160006101000a81548173ffffffffffffffffffffffffffffffffffffffff021916908373ffffffffffffffffffffffffffffffffffffffff160217905550506200011b565b600080fd5b600073ffffffffffffffffffffffffffffffffffffffff82169050919050565b6000620000b18262000084565b9050919050565b620000c381620000a4565b8114620000cf57600080fd5b50565b600081519050620000e381620000b8565b92915050565b6000602082840312156200010257620001016200007f565b5b60006200011284828501620000d2565b91505092915050565b61106c806200012b6000396000f3fe608060405234801561001057600080fd5b506004361061004c5760003560e01c80633cdc568b146100515780637c829c0f14610087578063f4d733d6146100bd578063fbfd2045146100d9575b600080fd5b61006b60048036038101906100669190610771565b6100f7565b60405161007e9796959493929190610856565b60405180910390f35b6100a1600480360381019061009c9190610771565b6101e1565b6040516100b49796959493929190610856565b60405180910390f35b6100d760048036038101906100d291906108f8565b6103e3565b005b6100e16106d9565b6040516100ee91906109e4565b60405180910390f35b60006020528060005260406000206000915090508060000160009054906101000a900473ffffffffffffffffffffffffffffffffffffffff169080600101805461014090610a2e565b80601f016020809104026020016040519081016040528092919081815260200182805461016c90610a2e565b80156101b95780601f1061018e576101008083540402835291602001916101b9565b820191906000526020600020905b81548152906001019060200180831161019c57829003601f168201915b5050505050908060020154908060030154908060040154908060050154908060060154905087565b6000606060008060008060008773ffffffffffffffffffffffffffffffffffffffff166000808a73ffffffffffffffffffffffffffffffffffffffff1673ffffffffffffffffffffffffffffffffffffffff16815260200190815260200160002060000160009054906101000a900473ffffffffffffffffffffffffffffffffffffffff1673ffffffffffffffffffffffffffffffffffffffff16146102bc576040517f08c379a00000000000000000000000000000000000000000000000000000000081526004016102b390610aab565b60405180910390fd5b60008060008a73ffffffffffffffffffffffffffffffffffffffff1673ffffffffffffffffffffffffffffffffffffffff16815260200190815260200160002090508060000160009054906101000a900473ffffffffffffffffffffffffffffffffffffffff16975080600101805461033490610a2e565b80601f016020809104026020016040519081016040528092919081815260200182805461036090610a2e565b80156103ad5780601f10610382576101008083540402835291602001916103ad565b820191906000526020600020905b81548152906001019060200180831161039057829003601f168201915b50505050509650806002015495508060030154945080600401549350806005015492508060060154915050919395979092949650565b600160009054906101000a900473ffffffffffffffffffffffffffffffffffffffff1673ffffffffffffffffffffffffffffffffffffffff166344f1c0226040518163ffffffff1660e01b8152600401602060405180830381865afa158015610450573d6000803e3d6000fd5b505050506040513d601f19601f820116820180604052508101906104749190610ae0565b86106104b5576040517f08c379a00000000000000000000000000000000000000000000000000000000081526004016104ac90610b59565b60405180910390fd5b600080600160009054906101000a900473ffffffffffffffffffffffffffffffffffffffff1673ffffffffffffffffffffffffffffffffffffffff1663eda65219896040518263ffffffff1660e01b81526004016105139190610b79565b600060405180830381865afa158015610530573d6000803e3d6000fd5b505050506040513d6000823e3d601f19601f820116820180604052508101906105599190610ccf565b50915091506040518060e001604052808373ffffffffffffffffffffffffffffffffffffffff168152602001828152602001888152602001878152602001868152602001858152602001848152506000808473ffffffffffffffffffffffffffffffffffffffff1673ffffffffffffffffffffffffffffffffffffffff16815260200190815260200160002060008201518160000160006101000a81548173ffffffffffffffffffffffffffffffffffffffff021916908373ffffffffffffffffffffffffffffffffffffffff16021790555060208201518160010190816106419190610efc565b5060408201518160020155606082015181600301556080820151816004015560a0820151816005015560c082015181600601559050508173ffffffffffffffffffffffffffffffffffffffff167f6abbf4e9cc0f5878cf9e48d184d56e6bc4ec8481c2bd696512e86d65fb808d3b8289898989896040516106c796959493929190610fce565b60405180910390a25050505050505050565b600160009054906101000a900473ffffffffffffffffffffffffffffffffffffffff1681565b6000604051905090565b600080fd5b600080fd5b600073ffffffffffffffffffffffffffffffffffffffff82169050919050565b600061073e82610713565b9050919050565b61074e81610733565b811461075957600080fd5b50565b60008135905061076b81610745565b92915050565b60006020828403121561078757610786610709565b5b60006107958482850161075c565b91505092915050565b6107a781610733565b82525050565b600081519050919050565b600082825260208201905092915050565b60005b838110156107e75780820151818401526020810190506107cc565b60008484015250505050565b6000601f19601f8301169050919050565b600061080f826107ad565b61081981856107b8565b93506108298185602086016107c9565b610832816107f3565b840191505092915050565b6000819050919050565b6108508161083d565b82525050565b600060e08201905061086b600083018a61079e565b818103602083015261087d8189610804565b905061088c6040830188610847565b6108996060830187610847565b6108a66080830186610847565b6108b360a0830185610847565b6108c060c0830184610847565b98975050505050505050565b6108d58161083d565b81146108e057600080fd5b50565b6000813590506108f2816108cc565b92915050565b60008060008060008060c0878903121561091557610914610709565b5b600061092389828a016108e3565b965050602061093489828a016108e3565b955050604061094589828a016108e3565b945050606061095689828a016108e3565b935050608061096789828a016108e3565b92505060a061097889828a016108e3565b9150509295509295509295565b6000819050919050565b60006109aa6109a56109a084610713565b610985565b610713565b9050919050565b60006109bc8261098f565b9050919050565b60006109ce826109b1565b9050919050565b6109de816109c3565b82525050565b60006020820190506109f960008301846109d5565b92915050565b7f4e487b7100000000000000000000000000000000000000000000000000000000600052602260045260246000fd5b60006002820490506001821680610a4657607f821691505b602082108103610a5957610a586109ff565b5b50919050565b7f436f6e74726163746f72206e6f7420666f756e64000000000000000000000000600082015250565b6000610a956014836107b8565b9150610aa082610a5f565b602082019050919050565b60006020820190508181036000830152610ac481610a88565b9050919050565b600081519050610ada816108cc565b92915050565b600060208284031215610af657610af5610709565b5b6000610b0484828501610acb565b91505092915050565b7f496e76616c696420636f6e74726163746f7220696e6465780000000000000000600082015250565b6000610b436018836107b8565b9150610b4e82610b0d565b602082019050919050565b60006020820190508181036000830152610b7281610b36565b9050919050565b6000602082019050610b8e6000830184610847565b92915050565b600081519050610ba381610745565b92915050565b600080fd5b600080fd5b7f4e487b7100000000000000000000000000000000000000000000000000000000600052604160045260246000fd5b610beb826107f3565b810181811067ffffffffffffffff82111715610c0a57610c09610bb3565b5b80604052505050565b6000610c1d6106ff565b9050610c298282610be2565b919050565b600067ffffffffffffffff821115610c4957610c48610bb3565b5b610c52826107f3565b9050602081019050919050565b6000610c72610c6d84610c2e565b610c13565b905082815260208101848484011115610c8e57610c8d610bae565b5b610c998482856107c9565b509392505050565b600082601f830112610cb657610cb5610ba9565b5b8151610cc6848260208601610c5f565b91505092915050565b600080600060608486031215610ce857610ce7610709565b5b6000610cf686828701610b94565b935050602084015167ffffffffffffffff811115610d1757610d1661070e565b5b610d2386828701610ca1565b925050604084015167ffffffffffffffff811115610d4457610d4361070e565b5b610d5086828701610ca1565b9150509250925092565b60008190508160005260206000209050919050565b60006020601f8301049050919050565b600082821b905092915050565b600060088302610dbc7fffffffffffffffffffffffffffffffffffffffffffffffffffffffffffffffff82610d7f565b610dc68683610d7f565b95508019841693508086168417925050509392505050565b6000610df9610df4610def8461083d565b610985565b61083d565b9050919050565b6000819050919050565b610e1383610dde565b610e27610e1f82610e00565b848454610d8c565b825550505050565b600090565b610e3c610e2f565b610e47818484610e0a565b505050565b5b81811015610e6b57610e60600082610e34565b600181019050610e4d565b5050565b601f821115610eb057610e8181610d5a565b610e8a84610d6f565b81016020851015610e99578190505b610ead610ea585610d6f565b830182610e4c565b50505b505050565b600082821c905092915050565b6000610ed360001984600802610eb5565b1980831691505092915050565b6000610eec8383610ec2565b9150826002028217905092915050565b610f05826107ad565b67ffffffffffffffff811115610f1e57610f1d610bb3565b5b610f288254610a2e565b610f33828285610e6f565b600060209050601f831160018114610f665760008415610f54578287015190505b610f5e8582610ee0565b865550610fc6565b601f198416610f7486610d5a565b60005b82811015610f9c57848901518255600182019150602085019450602081019050610f77565b86831015610fb95784890151610fb5601f891682610ec2565b8355505b6001600288020188555050505b505050505050565b600060c0820190508181036000830152610fe88189610804565b9050610ff76020830188610847565b6110046040830187610847565b6110116060830186610847565b61101e6080830185610847565b61102b60a0830184610847565b97965050505050505056fea2646970667358221220cc829ec61d2221578522691499e4dc76084602c589d962dc4ae9283651557b0e64736f6c63430008180033",
  "linkReferences": {},
  "deployedLinkReferences": {}
}